:10000000F8FF002011040000772F0000772F000078
:10001000772F0000772F0000772F0000772F000048
:10002000772F0000772F0000772F0000772F000038
:10003000772F0000772F0000772F0000772F000028
:10004000772F0000772F0000772F0000772F000018
:10005000772F0000772F0000772F0000772F000008
:10006000772F0000772F0000772F0000772F0000F8
:10007000772F0000772F0000772F0000772F0000E8
:10008000772F0000772F0000772F0000772F0000D8
:10009000772F0000772F0000772F0000772F0000C8
:1000A000772F0000772F0000772F0000772F0000B8
:1000B000772F0000772F0000772F0000772F0000A8
:1000C000772F0000772F0000772F0000772F000098
:1000D000772F0000772F0000772F0000772F000088
:1000E000772F0000772F0000772F0000772F000078
:1000F000772F0000772F0000772F0000772F000068
:10010000772F0000772F0000772F0000772F000057
:10011000772F0000772F0000772F0000772F000047
:10012000772F0000772F0000772F0000772F000037
:10013000772F0000772F0000772F0000772F000027
:10014000772F0000772F0000772F0000772F000017
:10015000772F0000772F0000772F0000772F000007
:10016000772F0000772F0000772F0000772F0000F7
:10017000772F0000772F0000772F0000772F0000E7
:10018000772F0000772F0000772F0000772F0000D7
:10019000772F0000772F0000772F0000772F0000C7
:1001A000772F00008D3E0000772F0000772F000092
:1001B000772F0000772F0000772F0000772F0000A7
:1001C000772F0000772F0000772F0000772F000097
:1001D000772F0000772F0000772F0000772F000087
:1001E000772F0000772F0000772F0000772F000077
:10040000FFFFFFFFFFFFFFFFFFFFFFFFFEFFFFFFFD
:1004100062B603F031FCFEE72DE9F0439FB0814660
:100420002698DFF8F88B8DF83B00174600201E4613
:1004300002910B900FF270144FF0FF350AE017F89D
:10044000011B0298C8470028029000F09A800B9880
:10045000401C0B90387850B12528F0D100200021A5
:10046000059006910790089109900A9103E00B9876
:100470009EE041F0010117F8010F2028F9D0232850
:100480000DD02B2804D02D2806D030280AD07AE0B1
:1004900041F0020189B2EEE741F00401FAE741F0D0
:1004A0000801F7E741F01001F4E700200D9009E0A2
:1004B0000D98404505DA00EB800302EB4302303A29
:1004C0000D927F1C3A78A2F130000A28F0D33A78D6
:1004D0002E2A18BF0C9523D117F8010F2A2807D10F
:1004E000306830607F1C50F8042B30600C9217E0AD
:1004F0002D280CBF17F8010B002000220C920AE0F7
:1005000040B90C9A424505DA02EB820203EB420342
:10051000303B0C937F1C3B78A3F130020A2AEFD3C7
:10052000ADF838102046397800F01AFF08B117F8F6
:10053000010B8DF83A009DF83A00682804BF39781D
:10054000682903D162208DF83A0007E06C2804BFC7
:1005500038786C2803D171218DF83A107F1C10A8CF
:100560000490324617F8013B6946484600F060F8AF
:1005700038B910AA6946484600F0C2F900287FF54C
:1005800069AF284614E02A288FD13068306050F8CF
:10059000042B3060002A0D9204D5524241F0040130
:1005A0000D9289B27F1C92E7686A6C747A4C0000E5
:1005B0001FB0BDE8F083622820D0682811D06A28D7
:1005C00003D06C2827D0712825D10868C01D20F0E1
:1005D00007000860D0E9002308300860194610467B
:1005E0007047002A0A680A60106803D0121D0A606A
:1005F00000B217E0121D0A6080B217E0002A0A68F4
:100600000A60106803D0121D0A6040B20AE0121D91
:100610000A60C0B20AE0002A0A680A60106803D0C3
:10062000121D0A60C1177047121D0A600021704731
:100630007CB50D4611461C462E69B4F1250200F02A
:100640004D811C3A00F08680121F022A40F28280FF
:100650000E3A00F00781521F5AD0093A7AD0921E02
:1006600016D0521E35D0521E022A73D9121F30D016
:10067000521F00F09A80521E4AD0521E00F0E480B1
:10068000D21E00F0FD80921E42D0D21E40D02BE13F
:1006900095F83A206C2A09D06869421C6A610A6898
:1006A0000A6052F8043B0A60335427E10A680A6082
:1006B00052F8043B0A600021009301914FF0FF3291
:1006C0002A6329466A4600F0A2F9002840F1168103
:1006D00001E195F83A000122FFF76DFFC5E900013D
:1006E0000023994204DA6869411C69612D210DE0FB
:1006F000288F810704D56869411C69612B2105E0B9
:10070000C00722D56869411C6961202131541CE071
:1007100095F83A000022FFF74EFFC5E9000195F871
:100720003800010711D5D5E900230020834208BF16
:1007300082420AD044F02000782806D1686930212E
:100740003154401C411C696134542146686930446D
:10075000E86083E00868C01D20F007000860D0E969
:10076000002308300860C5E90023D5E90001C80F5F
:1007700004D06869411C69612D210DE0288F810733
:1007800004D56869411C69612B2105E0C00704D5C7
:100790006869411C69612021315468693044E8600E
:1007A0002146284600F03BFAA8E005F13A025078CD
:1007B00020B14FF0FF340FF6143070E0107862284B
:1007C00008D0682824D06A2812D06C282ED071282E
:1007D0000ED02BE00A680A6052F8040B0A6020B9B8
:1007E0004FF0FF340FF6FC2059E0E96A017085E014
:1007F0000A680A6052F8040B0A6020B94FF0FF340F
:100800000FF6E0204BE0EA6AD317C0E9002375E059
:100810000A680A6052F8040B0A6020B94FF0FF34EE
:100820000FF6C0203BE0E96A018067E00A680A60D1
:1008300052F8040B0A6020B94FF0FF340FF6A420E1
:100840002DE0E96A016059E00A680A6052F8040B79
:100850000A600021C5E90001EE607821284600F019
:1008600036F94BE06C2285F83A200B680B6053F8A0
:10087000042B0B6052BB4FF0FF340FF69C200EE0B0
:1008800095F83A206C2AF0D00868086050F8044BBC
:100890000860EC603CB94FF0FF340FF6602000F0C8
:1008A0006BFD201A76BD2E6B002E04D5204600F07D
:1008B00085FD044608E032460021204600F09AFDFE
:1008C000002814BF041B3446AC6117E0294600F031
:1008D0009EF8002812D54FF0FF3076BD6869411CA4
:1008E00069612521315409E06869411C696125224B
:1008F0003254200002D0481C68617454002076BD38
:100900002DE9F0410F4682B00646796B7869BC6AE2
:10091000091A386A091AB869091A786A091AF86945
:10092000091A97F838000C1B410790460FD4202174
:10093000002C8DF800100ADD254601236A46394651
:10094000304600F0ABFC00285DD16D1EF5D17B690F
:1009500042463946304600F0A1FC002853D13020F1
:100960008DF800003D6A002D09DD01236A463946F5
:10097000304600F093FC002845D16D1EF5D1BB69CF
:10098000FA683946304600F089FC00283BD1302017
:100990008DF800007D6A002D08DD01236A46394686
:1009A000304600F07BFC70BB6D1EF6D1F868B9696B
:1009B000FB6942183946304600F070FC18BB302005
:1009C0008DF80000BD6A002D08DD01236A46394616
:1009D000304600F063FCB0B96D1EF6D197F83800D0
:1009E00041070DD52021002C8DF8001008DD0123D2
:1009F0006A463946304600F051FC20B9641EF6D1F3
:100A00000020BDE8F6814FF0FF30BDE8F6812DE90A
:100A1000F0470D46A4B02E6B002E8046914648BF8D
:100A20006FF0004600F012FD0246686B0FF60413EB
:100A30001218D3E90001CDE90101812A28BF4FF046
:100A4000FF303ED20024002E2FDDD9F8001001AA7D
:100A5000684600F005FD0746002F35D4D9F80000A0
:100A600008B97F1E30D4BE421FDB68693818812860
:100A70000AD30020686303AA29464046FFF740FFD7
:100A8000040012D40020686103A8D5F814A03A46E7
:100A90006946504400F0EEFCBA44C5F814A059F879
:100AA000040B002818BFF61BCDD12CB903AA294688
:100AB0004046FFF725FF044614B9002068616863CB
:100AC000204624B0BDE8F0874FF0FF34F8E72DE969
:100AD000F04704468A462569BAF16F0F08BF082718
:100AE00005D04AF02000782814BF0A2710273C269A
:100AF000D4E90001BAF1640F18BFBAF1690F80465A
:100B0000894607D10B4600218B4203DAD8F1000851
:100B100069EB49090020814508BF80451FD1206B42
:100B2000E8B9082F47D194F83800010743D53020A1
:100B30003B2685F83B003EE000280ED594F83800AF
:100B400000F01400102808D1626B6069121A206A44
:100B5000121A561A002EC8BF2662BDE8F08740461A
:100B600049463A46FB1700F0D9FC3032761ED2B225
:100B70003A2AA4BFAAF151008218AA554046494614
:100B80003A46FB1700F0CAFC8046894600208145A2
:100B900008BF804503D0E068A9198842DFD3082F39
:100BA00009D194F83800010705D5A95D302902D094
:100BB000761E3020A855A819E060C6F13C01206BD4
:100BC000A1618142B8DA411A21624FF6EF70218F9C
:100BD00001402187BDE8F0872DE9D04306460F4646
:100BE00014464FF00008DFF8389412E0E00707D50C
:100BF00042464B463046394600F008FD06460F4651
:100C00004046494642464B4600F000FD641080468F
:100C10008946002CEAD130463946BDE8D0832DE91B
:100C2000F04F0446884648F020008DB0D4E9009B80
:100C3000612802AE0BD0206B002802D5062020636D
:100C400005E001BF48F02000672801212163D4E9B5
:100C500000A568004015401C0DD129030BD0A8F158
:100C6000610103201A29A06102D20FF2D06110E0C5
:100C70000FF2CC610DE068004015401C0ED1290335
:100C80000CD1A8F1610103201A29A06116D30FF23B
:100C9000B861E068032200F0EDFBD1E125F00041EE
:100CA000B1F5801F2AF0000211D20027B94208BF17
:100CB000BA42019705D15046294613E00FF28461EC
:100CC000E7E701AA5046294600F072FD0AE0DFF886
:100CD000542302EB1150DFF8501301900D40D3491B
:100CE00050462943C4E9000148F02002612A0DD191
:100CF000E06830210170811CE160B8F1610F0CBF28
:100D00007821582141706069801C6061D4E900A598
:100D100025F0004300202AF00002834204BF8242F3
:100D2000002300F0548148F02000612840F09F80AB
:100D3000206B00284CBF2120401C00904846009F9B
:100D40007F1C59460022002300F06AFDAB46019843
:100D50008DF8082038BF8BF0004BD146001F002FC4
:100D600001900DF1090A40F3408140F2FF754846B9
:100D700059460022002300F06BFD80F036815A4670
:100D80005000400D00F11C010FD000290DDDA942DB
:100D900005DBA7490BF000400143002012E06FF390
:100DA0001E5242EA015148460CE02BF0004129F066
:100DB0000000994208BF98420FBF59461C2259466D
:100DC00000F05EFD81468B4600F0F8FDFF1F002F0E
:100DD000064609DD00F010FE02460B46484659461D
:100DE00000F01CFE81468B460AF10700072104E053
:100DF00006F00F0200F8012D3611002E01DD491E0C
:100E0000F6D5491E5CBF002200F8012DF9D5E7E0B8
:100E10000020194602AA0A4400E05B1E12F801599C
:100E2000491E8542F9D00F2804D10DF10900425C1A
:100E3000521C4254002904D50198001D02AE5B1CCF
:100E40000190581E0CD43118A8F13A050A783032B6
:100E5000D2B2392AC8BFAA18401E01F80129F5D517
:100E6000206B002840F1B280591E2163AEE0484655
:100E700059460022002300F0D3FC019938BF8BF0C3
:100E8000004B47F2975041436A4A91FBF2F20192BC
:100E9000D2F1070204DD48465946FFF79DFE0AE0FD
:100EA000524200206449FFF797FE02460B4648462F
:100EB000594600F025FE814648F020006628206B48
:100EC0005E4D06BF019E0A3606263618142EC8BF90
:100ED000142630208B468DF808000DF10907002EEE
:100EE00033DD4846594600F02FFF01460A4607F118
:100EF000080304200A27B2FBF7F707EB870EA2EBE3
:100F00004E02303203F8012C0A22B7FBF2F202EB58
:100F1000820EA7EB4E073037401E03F8027DE9D161
:100F2000083E002E03F10807D9DD084600F020FF37
:100F300002460B464846594600F070FD00222B46FB
:100F400000F064FB81468B46CBE70DF10900381AAF
:100F50000DF1090604E00199491E401E0191761C1D
:100F600031783029F7D048F02002662A02D1019961
:100F7000491C05E048F0200165290CBF0121002132
:100F8000236BCB189842B8BF431E002B1ED483425C
:100F900004DAF05C3528A8BF392000DA3020194681
:100FA000721E02EB010900E05B1E19F801B9491E2F
:100FB0008345F9D0392802D1705C401C7054002957
:100FC00004D50198401C16465B1C0190019800B2A4
:100FD00000901BB232464146204600F034F82FE024
:100FE000002F00F1070A3FF7C2AE0DF10900AAEB8E
:100FF000000100980B468142C8BF0346002B0DF14B
:1010000009063FF52DAF8B42BFF602AF0DF1090087
:10101000C05C07287FF7FCAE0F20FAE6CBCCCC0CE7
:101020000000244002FCFFFFFFFF0F800000E03FB4
:101030000000F07FA08601000000F03F84D79741B8
:101040000DB0BDE8F08F2DE9F04784B00546894624
:1010500092461F4600F006FA002F406A2E6B90F869
:10106000008002DC01270FF2E42ABDF9304049F08C
:101070002000662808BF641C12D0672877D114F1BD
:10108000040F7ADBB44278DA95F83800641C010763
:1010900002D4B742B8BF3E4624B2361B48BF002632
:1010A00024B2E868A969002C22DC4A1C302343548E
:1010B000002E03DC95F83800010703D5E86800F836
:1010C0000280521CE642B8BF744224B2A6196042A4
:1010D000BE42B8BF3746AA6168623FB2EF61E868B6
:1010E000AB693A465146184400F0C4F9F61B18E0C3
:1010F00022469742084416DA3A46514600F0BAF9B9
:10110000A9697918E01B002EA961686203DC95F8D3
:101110003800020705D5E86800F80180E869401C3E
:10112000E861AE62A3E0514600F0A4F9A869201876
:101130003F1B002E03DC95F838100A0703D5E96839
:1011400001F80080401CA8613FB2BE42B8BF3746DC
:10115000E868AB693FB23A460AEB0401184400F074
:1011600089F9A8693818A861F61B6E627FE0B9F1A9
:10117000610F14D14FF0700916E0B74204DA95F808
:1011800038100A0758BF3E46761E48BF0026B9F100
:10119000670F14BF4FF045094FF0650904E0B9F13E
:1011A000410F08BF4FF05009A969EB68481CA861BE
:1011B000002E1AF8012B5A5403DC95F838100A0750
:1011C00017D5E968431CAB6101F80080002E10DDE3
:1011D0007F1E3FB2BE42B8BF3746E8683FB23A46CC
:1011E0005146184400F046F9A8693818A861F61B62
:1011F0006E62E868A9690844002C80F8009004D465
:101200002B21417000F1020A04E02D21417000F110
:10121000020A644200206A460AE021460A2391FB42
:10122000F3F404EB8403A1EB430102F8011B401C1F
:1012300024B2002CF1DC012806DC49F020016529EC
:1012400004BF30210AF8011B48B930200AF8010B0D
:1012500007E0401E1DF8001030310AF8011B00287D
:10126000F7DCE868A9690844AAEB0000E86195F892
:10127000380000F0140010280DD16969A8694118E0
:10128000686A4118E8694118A86A4118686B814288
:10129000BCBF411A296204B0BDE8F087F8B5054625
:1012A0000E4617461C46002074B117F8011BB068A3
:1012B000A847B06030B1F06A401CF0620020641EA4
:1012C000F3D1F2BD4FF0FF30F2BD00007072696ED5
:1012D00074665F733A20256E20646973616C6C6F6D
:1012E000776564007072696E74663A20626164208A
:1012F000256E20617267756D656E74007072696E1F
:1013000074665F733A20626164202573206172679E
:10131000756D656E740000007072696E74665F733F
:101320003A2062616420256C7320617267756D6577
:101330006E74000000000000000000006E616E008E
:101340004E414E00696E6600494E46003000B1F5D0
:10135000807F02D34FF0FF3070470170012070474B
:101360000278C9B28A421AB11CBF10F8012FF9E7FE
:1013700018BF00207047000080B508B90FF21C00AC
:1013800005490B681BB122220021984701E000F0BB
:10139000FCFC222002BD0000E03B0020636F6E7366
:1013A000747261696E742068616E646C65723A2053
:1013B000626164206D6573736167650000F101030C
:1013C000810704D010F8011B89B18107FAD10268A6
:1013D000B2F10131914311F0803F04BF50F8042F66
:1013E000F6E710F8011B11B110F8011BFBE7C01A5A
:1013F00070470000C9B2830706D0521E22D310F8EE
:10140000013B9942F7D11FE0083A13D302F10402DD
:1014100041EA012141EA014150F8043B121F21BF7A
:101420004B40A3F1013C2CEA030C1CF0803FF3D0AD
:10143000C9B2001F083210F8013B521E28BF91EAC2
:10144000030FF8D818BF0120401E704780B500F088
:1014500003F8006C02BD000004487047DA6B1047C7
:10146000024BFBE70248704700000000300CFF1FF2
:10147000F80BFF1F62B38B0708D0521E11F8013B17
:1014800000F8013B00F024808B07F6D1830740F081
:10149000208000BF103A07D330B4B1E83810103ABA
:1014A000A0E83810F9D230BC530724BFB1E80810C7
:1014B000A0E8081044BF51F8043B40F8043BD207B1
:1014C00024BF31F8022B20F8022B44BF0B780370A5
:1014D0007047121F17D35B0009D151F8043B20F865
:1014E000023B1B0C121F20F8023BF6D20BE051F816
:1014F000043B00F8013B1B0A20F8023B1B0C121FA7
:1015000000F8013BF3D238BF121D521E24BF11F860
:10151000013B00F8013BF8D8704700001B4213D193
:10152000094236D12AB18446B0FBF2F002FB10C268
:10153000704700F02DBCFCD30022002370470B0045
:101540000200002100207047904271EB030CF6D39B
:1015500070B5B1FA81F4B3FA83F52C1BA340C4F142
:10156000200532FA05F63343A2405FF00046E6401C
:1015700002E05B085FEA3202841A71EB030524BFC4
:10158000204629467641F4D302000B0030000021AA
:1015900070BD012ACFD970B5140C20D0B1FA81F4F6
:1015A000B2FA82F5C4F120046419B4F12006D6D34E
:1015B000B2405FF00044F440002502E052085FEAC8
:1015C0003303C61A71EB020E24BF304671466441E4
:1015D0006D41F3D302000B002000290070BD0C46C2
:1015E000B1FBF2F102FB11452D0445EA1045B5FBB4
:1015F000F2F402FB145580B240EA0545B5FBF2F067
:1016000002FB105240EA044070BD0000B0B581EA10
:10161000030C0CF0004C40F2FF7515EA11541DBF8D
:1016200015EA1357AC42AF4239E0E41923EA4553B7
:1016300043F48013C90241F0004141EA505EC70201
:101640001100A7FB020200284FF00000EEFB012072
:101650004FF00001E3FB072118BF42F001024018E0
:1016600000214941E3FB0E01A4F580640F0302D27F
:1016700052004041494154F101046CDD470872F1C8
:10168000004250F1000051EB0451A1F580115CBF04
:1016900041EA0C01B0BD4CEA05510020B0BD05EA9D
:1016A0001357AC4214BFAF4241E050EA410E1CBF99
:1016B00052EA430E02E061460020B0BD24423C44A1
:1016C0001BD15FEA070EF6D0090302BF01460020D6
:1016D000AEF1140EB1FA81F7AEEB070401FA07FE82
:1016E0000C37C7F1200100FA07F7C8404EEA000E98
:1016F00023EA455343F48013A2E733F00043B3FADF
:1017000083F704BFB2FA82FE77440B3FE41BB7F1C4
:10171000200E2FBF02FA0EF3BB40C7F1200E22FAB3
:101720000EFE38BF43EA0E03BA40641C82E750EA5B
:10173000410E14BF52EA430E6FF000014FF4001740
:1017400017EB430F8ABF194617EB410FB5E74CEA79
:1017500005510020B0BDD4F10104B4F120070FDA27
:10176000C4F12007520828BF42F0010210FA07F521
:1017700001FA07F7E1BF2A43E0403843E1400FE0B8
:10178000352C98DCC7F1200452EA400220FA07F217
:1017900018BF42F0010231FA07F0A1400A430021CC
:1017A00072F1004250F1000051EB0C01B0BD00009D
:1017B00010B5144600F002F8226010BDC1F30A53C0
:1017C00043B14A0012F5001F28D2A3F2FE32A1EB6A
:1017D0000251704750EA410C20D001F0004C31EA30
:1017E0000C01B1FA81F204BFB0FA80F3D2180B3ABF
:1017F000B2F120032CBF00FA03F1914041EA0C0141
:101800003EBFC2F1200C20FA0CF319439040524223
:1018100040F2FD33D21A01EB0351704700227047AA
:101820004FF4001C1CEB410F94BF1CEB430F09E06D
:1018300041EA030C50EA4C0C52EA0C0C03D29942D8
:1018400008BF9042704714BF8B428242704700002D
:101850004FF4001C1CEB410F94BF1CEB430F09E03D
:1018600041EA030C50EA4C0C52EA0C0C03D28B42B6
:1018700008BF8242704714BF9942904270470000EF
:10188000124254D440F2FF7C1CEA11530FD063453E
:1018900031D09B1863453CBF01EB0251704701F00A
:1018A000004141EA0C510020AFF30080704750EA3C
:1018B000410320D001F0004C91EA0C011CD0B1FA98
:1018C00081F30B3B9A420DD9D21A994051EA0C018F
:1018D000C3F1200C20FA0CFC61449840531C40F2E8
:1018E000FF7CD7E7914041EA0C01C2F1200C20FABD
:1018F0000CF3194390407047B0FA80F31533202B56
:10190000E0D3202AEED3203A203B9A4209D9D21ABA
:1019100000FA03F141EA0C010020531C40F2FF7C65
:10192000B8E700FA02F141EA0C0100207047524288
:1019300040F2FF7C1CEA11530DD06345DBD0B2EBC3
:10194000030C3CBFA1EB025170470CF1010221EAEC
:10195000035141F4801150EA410CCCD001F0004C0D
:10196000352A27DC30B481EA0C01B2F1200309DA10
:10197000C2F12003044601FA03F5D0402843D140C8
:101980009C400CE0C3F12002450020FA03F418BF8C
:1019900044F0010421FA03F091400C43002174F15A
:1019A000004550F1000051EB0C01244230BC7FF4A3
:1019B0007BAF70476146002076E70000C1F30A5311
:1019C00040F2FE329B1A14DDD3F120034FEAE1729C
:1019D00008DDC90241EA505141F00040D84080186A
:1019E0005040704703F2E13010B1D24382F0004022
:1019F0007047002070470000C11768B14840401A86
:101A0000B0FA80F29040D21CC907C2F5846241EA64
:101A1000025202EBD02140057047000070B44FF035
:101A2000004591EA030F40F1B5816B40841A71EBD8
:101A3000030603D2001BB141121973414FF4001C7D
:101A40001CEB410F34BF7CEB430442E00C0DA4EBD4
:101A50001356352E4FDC45EAC323DB0A45EAC12184
:101A6000C912B6F120050DDD63FA05F6EB4086EAF2
:101A70000305124218BF45F00105C01851F10001DD
:101A80000CD213E062FA06F5F2405540F3415A4099
:101A9000B340F3405A408018594107D349085FEAE0
:101AA00030005FEA350528BF45F0010501F58011DA
:101AB000420875F1004250F1000041EB04514E0024
:101AC00016F5001F70BC38BF70470020090D0905CE
:101AD00070471CEB410F10D252EA43060BD0BCEB0F
:101AE000410F05D80C0DAB43661E342EB6DD02E067
:101AF000AB438018594170BC704770BC7047000000
:101B0000F0B540F2FF7581EA030C0CF0004C15EAC9
:101B100011541DBF15EA1357AC42AF42E5E0BC417A
:101B2000C1F31301C3F31303801A994143F48013E3
:101B300004D2641E4000494180185941C90241EA5B
:101B40005051B1FBF3F603FB1611A2FB0675D7EB60
:101B5000C020A94102D2761E80185941C90241EA2B
:101B60005051B1FBF3FE03FB1E11A2FB0E75D7EB28
:101B7000C020A94103D2AEF1010E8018594189025B
:101B800041EA9051760546EA8E2EB1FBF3F603FB4F
:101B90001611A2FB0675D7EB8020A94102D2761E52
:101BA00080185941C90241EA50514EEA060EB1FB74
:101BB000F3F603FB1611A2FB0675D7EBC020A94173
:101BC00002D2761E80185941C90241EA5051B1FB38
:101BD000F3F703FB1711A2FB0735D3EBC020A94194
:101BE00067F100070CBF004247F0010766F3D527F5
:101BF0004FEA1E31B80814F5806412DDBD0775F197
:101C0000004250EB0E5051EB045111F5801F5CBFA8
:101C100041EA0C01F0BD4CF07F6141F0E041002051
:101C2000F0BDBD076D0840EA0E5041F48011D4F1BB
:101C30000104B4F120060ADAC4F120060200E040F3
:101C400001FA06F3E1401843B24015430EE0342C8C
:101C500013DCC6F1200445EA40056D0820FA06F2BF
:101C6000154321FA06F0A1400D43002175F1004211
:101C700050F1000051EB0C01F0BD00205FEA0C01B7
:101C8000F0BDCFB992185B41B3FA83F704BFB2FA43
:101C900082F6BF190B3FB7F120062FBF02FA06F3F9
:101CA000BB40C7F1200622FA06F638BF3343BA40DC
:101CB0001CB1E419641E33E77F4231F00041B1FAF0
:101CC00081F404BFB0FA80F6A4190B3CB4F12006ED
:101CD0002FBF00FA06F1A140C4F1200620FA06F653
:101CE00038BF3143A0403C1B1AE7AC421ABF05EA9B
:101CF0001357AF4212E050EA41061CBF52EA4306B6
:101D0000BFE750EA4107304661461CBF41EA055132
:101D1000F0BD52EA430C08BFC143F0BD00204FF4B0
:101D2000001616EB410F98BF16EB430F08BF16EBDA
:101D3000410F24BFC14305E016EB430F0CBF6146C2
:101D40004CEA0551F0BD0000400D491840EA8120E1
:101D50000CD2490DA1F58061491C40F0004005DB23
:101D6000D1F11F0154BFC840C01770470020704711
:101D7000014648B1B0FA80F18840C91CC1F58461C0
:101D8000090501EBD02140057047012000F0B6B8ED
:101D900070470000841A71EB030604D26E40001BEA
:101DA000B141121973414FF4001C1CEB410F34BFB9
:101DB0007CEB430682E00C0DA4EB1356362E7BDC45
:101DC000012E45EAC32341DC43EA525312BFD2023B
:101DD00092025B08240545EAC12141EA5051D2EB49
:101DE000C020994125D407D1B0FA80F610FA06F147
:101DF00062D00020203608E0B1FA81F6B140C6F189
:101E0000200220FA02F21143B0404FEAF474B4EB1E
:101E1000465434F001064FEA74040AD8D6F5001689
:101E2000760D04F00044F04061FA06F25040F140B3
:101E30004840C00A40EA415021F0004128BF5FEA13
:101E4000500550F1000044EBD12135E0DB0A45EAB2
:101E5000C121C90AB6F120050EDD42EA0242120C88
:101E6000C5F1200603FA06F6EB4042EA06056D428C
:101E7000984161F100010DE062FA06F5F24055402B
:101E800063FA06FC82EA0C02F3405A406D4290412C
:101E900061EB030111F4801F05D1641E620502D0BD
:101EA0006D004041494121F48011430875F1004320
:101EB00050F1000041EB045170BC70471CEB410F26
:101EC00015D223F0004352EA43060BD04FEA4C0CE4
:101ED000BCEB410F04D80C0D661E342EB7DDEBE7CA
:101EE000801A994150EA410608BF0021E4E708BF83
:101EF0001CEB430F28BF6FF00001DDE780B5AFF3A7
:101F00000080024A11001820ABBEFBE72600020049
:101F1000440EFF1F00000000000000000000000051
:101F200000000000000000000000000000000000B1
:101F300000004E6F6E4D61736B61626C6500000056
:101F400000486172644661756C7400000000000016
:101F50004D656D4D616E6167656D656E7400004223
:101F600075734661756C74000000000000005573C5
:101F70006167654661756C74000000000000000038
:101F80000000000000000000000000000000000051
:101F90000000000000000000000000000000000041
:101FA0000000000000000000000000000000000031
:101FB000000000000000000000535643616C6C00FC
:101FC000000000000000000044656275674D6F6E00
:101FD00069746F7200000000000000000000000043
:101FE00000000000000050656E64535600000000C1
:101FF00000000000005379735469636B0000000017
:1020000000000000444D41300000000000000000CE
:10201000000000444D4131000000000000000000BD
:102020000000444D413200000000000000000000AC
:1020300000444D413300000000000000000000009B
:10204000444D413400000000000000000000004446
:102050004D41350000000000000000000000444D2C
:1020600041360000000000000000000000444D4127
:10207000370000000000000000000000444D41381F
:102080000000000000000000000000444D41390045
:1020900000000000000000000000444D413130000D
:1020A000000000000000000000444D4131310000FC
:1020B0000000000000000000444D413132000000EB
:1020C00000000000000000444D41313300000000DA
:1020D000000000000000444D4131340000000000C9
:1020E0000000000000444D413135000000000000B8
:1020F00000000000444D415F4572726F72000000A5
:102100000000004D434D00000000000000000000F2
:1021100000004654464C0000000000000000000093
:1021200000526561645F436F6C6C6973696F6E0028
:102130004C56445F4C565700000000000000004C15
:102140004C57000000000000000000000000576134
:10215000746368646F6700000000000000524E471F
:102160000000000000000000000000004932433081
:102170000000000000000000000000493243310070
:102180000000000000000000000053504930000033
:102190000000000000000000005350493100000022
:1021A0000000000000000000535049320000000011
:1021B0000000000000000043414E305F4F525F4D71
:1021C000425F6275660043414E305F4275735F4FF8
:1021D000666600000043414E305F4572726F7200C8
:1021E0000000000043414E305F54785F5761726ECB
:1021F000696E6743414E305F52785F5761726E6916
:102200006E6743414E305F57616B655F55700000EC
:102210000052657365727665643531000000000018
:1022200052657365727665643532000000000043C4
:10223000414E315F4F525F4D425F627566004341D0
:102240004E315F4275735F4F666600000043414E3A
:10225000315F4572726F72000000000043414E31E1
:102260005F54785F5761726E696E6743414E315FAC
:1022700052785F5761726E696E6743414E315F57A6
:10228000616B655F5570000000526573657276651D
:10229000643539000000000052657365727665642C
:1022A0003630000000000055415254305F52585FF4
:1022B00054580000000055415254305F45525200BE
:1022C000000000000055415254315F52585F54588D
:1022D0000000000055415254315F45525200000049
:1022E00000000055415254325F52585F545800006C
:1022F000000055415254325F455252000000000028
:102300000055415254335F52585F5458000000004A
:1023100055415254335F45525200000000000055B1
:10232000415254345F52585F5458000000005541E8
:102330005254345F45525200000000000055415293
:1023400054355F52585F54580000000055415254B4
:10235000355F455252000000000000414443300008
:102360000000000000000000000041444331000074
:10237000000000000000000000434D50300000004D
:102380000000000000000000434D5031000000003C
:1023900000000000000000434D503200000000002B
:1023A00000000000000046544D3000000000000016
:1023B000000000000046544D310000000000000005
:1023C0000000000046544D320000000000000000F4
:1023D000000000434D540000000000000000000019
:1023E0000000525443000000000000000000000004
:1023F0000052657365727665643833000000000032
:10240000504954300000000000000000000000505F
:102410004954310000000000000000000000504955
:102420005432000000000000000000000050495439
:102430003300000000000000000000005044423063
:102440000000000000000000000000555342300072
:1024500000000000000000000000555342444344C7
:10246000000000000000000000454E45545F31357B
:1024700038385F54696D6572454E45545F547261DA
:102480006E736D69740000454E45545F5265636517
:10249000697665000000454E45545F4572726F7263
:1024A000000000000049325330000000000000002E
:1024B00000000000534448430000000000000000FA
:1024C0000000004441433000000000000000000014
:1024D0000000444143310000000000000000000003
:1024E00000545349300000000000000000000000CC
:1024F0004D43470000000000000000000000004CB9
:102500005054696D657200000000000000005265C3
:1025100073657276656431303200000000504F52AE
:10252000544100000000000000000000504F5254D1
:102530004200000000000000000000504F525443D1
:1025400000000000000000000000504F5254440002
:10255000000000000000000000504F5254450000F1
:10256000000000000000000052657365727665642B
:102570003130380000000052657365727665643151
:102580003039000000005265736572766564313140
:102590003000000000526573657276656431313138
:1025A0000000000052657365727665643131320057
:1025B0000000005265736572766564313133000046
:1025C0000000526573657276656431313400000035
:1025D0000052657365727665643131350000000024
:1025E00052657365727665643131360000000052C1
:1025F000657365727665643131370000000052659D
:10260000736572766564313138000000005265737D
:1026100065727665643131390000000000F00F40CA
:1026200040F00F4080F00F40C0F00F4000F10F402D
:10263000F0000A1D30001800320018016000181860
:102640006400181A6E00181F780013187D00131A02
:102650008200131C8C000E1296000E15A0000E189E
:10266000AA000E1BB4000E1EC8000C1CE1000B1EBD
:10267000FA000A1F000109080090044000A004406D
:1026800000B0044000C0044000D0044000A0064058
:1026900000B0064000C0064000D0064000A00E403A
:1026A00000B00E4034353648494A0B4F11406F9AFE
:1026B00002040101903B0020E03B0020903B002001
:1026C000903B002000000000903B00200000000034
:1026D000F40BFF1FE00BFF1F0000000000000000D4
:1026E00000000000000000000000000000000000EA
:1026F0000000000000000000BC400000BC400000E2
:10270000BC400000BC400000BC400000BC400000D9
:10271000BC400000FFFFFFFFFFFFFFFFBE400000C7
:10272000BC400000BC400000FFFFFFFFFFFF0000B7
:10273000C040000001000000F80BFF1F0000000077
:102740000000000000000000000000000000000089
:102750000000000000000000000000000000000079
:102760000000000000000000000000004F13000007
:10277000010000000000000006010000DFF800F08A
:10278000F50DFF1FDFF8B81340B231F8201040B24A
:102790000128C0F27B8140B2112880F277810022AB
:1027A000DFF8A0331A7089B2312904DA0022DFF889
:1027B00094335A7084E089B2612904DA0122DFF887
:1027C00084335A707CE089B2912904DA0222DFF85E
:1027D00074335A7074E089B2C12904DA0322DFF835
:1027E00064335A706CE089B2F12904DA0422DFF80C
:1027F00054335A7064E089B240F22112914204DAF3
:102800000522DFF840335A705AE089B240F2511283
:10281000914204DA0622DFF82C335A7050E089B274
:1028200040F28112914204DA0722DFF818335A701D
:1028300046E089B240F2B112914204DA0822DFF890
:1028400004335A703CE089B240F2E112914204DA5A
:102850000922DFF8F0325A7032E089B240F21122D8
:10286000914204DA0A22DFF8DC325A7028E089B299
:1028700040F24122914204DA0B22DFF8C8325A704A
:102880001EE089B240F27122914204DA0C22DFF894
:10289000B4325A7014E089B240F2A122914203DAB4
:1028A0000D22A84B5A700BE089B240F2D12291421E
:1028B00003DA0E22A34B5A7002E00F22A14B5A708A
:1028C00089B21A2903DA00229E4B9A706BE089B212
:1028D000332903DA01229B4B9A7064E089B24C29B8
:1028E00003DA0222974B9A705DE089B2652903DA18
:1028F0000322944B9A7056E089B27E2903DA0422AF
:10290000904B9A704FE089B2972903DA05228D4BDC
:102910009A7048E089B2B02903DA0622894B9A708E
:1029200041E089B2C92903DA0722864B9A703AE05E
:1029300089B2E22903DA0822824B9A7033E089B225
:10294000FB2903DA09227F4B9A702CE089B2B1F59A
:102950008A7F03DA0A227B4B9A7024E089B240F224
:102960002D12914203DA0B22764B9A701BE089B24A
:10297000B1F5A37F03DA0C22724B9A7013E089B28F
:1029800040F25F12914203DA0D226E4B9A700AE018
:1029900089B2B1F5BC7F03DA0E226A4B9A7002E06D
:1029A0000F22684B9A7089B21A2903DA0022654B0C
:1029B000DA706BE089B2332903DA0122614BDA70F5
:1029C00064E089B24C2903DA02225E4BDA705DE0E2
:1029D00089B2652903DA03225A4BDA7056E089B2CC
:1029E0007E2903DA0422574BDA704FE089B2972927
:1029F00003DA0522534BDA7048E089B2B02903DAD2
:102A00000622504BDA7041E089B2C92903DA072265
:102A10004C4BDA703AE089B2E22903DA0822494BDA
:102A2000DA7033E089B2FB2903DA0922454BDA7008
:102A30002CE089B2B1F58A7F03DA0A22414BDA70C1
:102A400024E089B240F22D12914203DA0B223D4B71
:102A5000DA701BE089B2B1F5A37F03DA0C22394B9F
:102A6000DA7013E089B240F25F12914203DA0D226C
:102A7000344BDA700AE089B2B1F5BC7F03DA0E227A
:102A8000304BDA7002E00F222E4BDA70704710B52F
:102A90000400200040B2FFF775FE2B48007810F0CC
:102AA000FD00294908702848007850F01000264998
:102AB0000870B8202549087025480078C006FBD466
:102AC00023480078C0B2C0F381000228F8D11D4825
:102AD000C3781C4882781B4841781A480078FFF771
:102AE0004DFE174864B200EB8400807810F01F00A0
:102AF00018490870124864B200EB8400C07810F0E6
:102B00001F0050F0400014490870114800788006FA
:102B1000FBD50F4800784006FBD50C48007810F034
:102B20003F000A4908700A480078C0B2C0F381002B
:102B30000328F8D1024864B230F82400C0B210BDB6
:102B4000300BFF1F740BFF1F014006400040064082
:102B50000640064004400640054006402DE9F84383
:102B600004000D0064B2002C08D0022C2CD018D325
:102B7000042C4FD03BD3052C5FD071E0DFF824024A
:102B8000006850F48060DFF81C1208604FF4407158
:102B9000662000F013F94FF44071672000F00EF941
:102BA0005EE0DFF80002006850F40060DFF8F41126
:102BB00008604FF44071432000F000F94FF4407179
:102BC000442000F0FBF84BE0DFF8D801006850F437
:102BD0008050DFF8D01108604FF44071632000F09E
:102BE000EDF84FF44071622000F0E8F838E0DFF8CB
:102BF000B401006850F40050DFF8A81108604FF4E9
:102C00004071502000F0DAF84FF44071512000F08C
:102C1000D5F825E0DFF89001006850F48060DFF817
:102C2000881108604FF44071992000F0C7F84FF404
:102C30004071982000F0C2F812E0DFF86C010068E3
:102C400050F40060DFF8601108604FF44071892093
:102C500000F0B4F84FF44071882000F0AFF8FFE7BF
:102C6000DFF8480164B250F82400C07810F0F30097
:102C7000DFF8381164B251F82410C870DFF82C0165
:102C800064B250F824008078DFF8201164B251F863
:102C90002410887064B2002C02D064B2012C07D1D9
:102CA000DFF80C0101684FF47A704143894606E071
:102CB000DFF8000101684FF47A704143894628012A
:102CC000B9FBF0F00600B6B2B6F5005F02DB41F6E4
:102CD000FF700600B9FBF5F0B6B2B0EB06100700C6
:102CE000BFB2202F04DBDC21DFF8CC0000F0D9F8E4
:102CF000DFF8B80064B250F82400007810F0E0006B
:102D00008046C6F3042050EA0800DFF8A01064B241
:102D100051F824100870DFF8940064B250F82400D1
:102D20004670DFF8880064B250F82400807A10F012
:102D3000E000804617F01F0050EA0800DFF86C1032
:102D400064B251F824108872DFF8600064B250F861
:102D50002400007C50F08800DFF8501064B251F875
:102D600024100874DFF8440064B250F82400C078DE
:102D700050F00C00DFF8341064B251F82410C87021
:102D8000BDE8F183DFF8242040B252F82020127908
:102D90001206F7D5DFF8142040B252F82020D17186
:102DA0007047000034800440288004408C0BFF1FD3
:102DB000843B00208C3B00207C3F000010B42C4A58
:102DC00013684FF400740200D2B2520994402343B6
:102DD000274A1360274AC0B203005B1152F8233020
:102DE000012410F01F029440C3F8A040214AC0B251
:102DF00003005B1152F82320C0B210F01F0342F809
:102E0000231010BC704710B4194A13684FF40074B3
:102E10000200D2B2520994402343154A1360154A66
:102E2000C0B203005B1152F82330012410F01F02DE
:102E30009440C3F8A04031F4E0610E4AC0B20300F0
:102E40005B1152F82320C0B210F01F0352F8232068
:102E500012F4E0621143074AC0B203005B1152F85A
:102E60002320C0B210F01F0342F8231010BC70479B
:102E700038800440780BFF1FDFF800F0AD0CFF1F17
:102E8000DFF800F0DD0CFF1FBFF34F8F47480168EC
:102E900011F4E0614648014344480160BFF34F8F9D
:102EA000FEE738B504000D00002000F08FF82A007E
:102EB0002100404800F0C2F8002000F0A4F84FF4D0
:102EC0007A7000F0EAF8F2E738B504000D0021004E
:102ED00049B20420FFF756FF200032BD10B5002490
:102EE000002000F0F1F8002000F024F9002841D182
:102EF000002000F06BF8002000F01CF9012801D13F
:102F000001200400002000F07EF82B4800F096F825
:102F10004FF4FA7000F0C1F8E4B2012CEBD10020BC
:102F200000F008F90028E6D1002000F003F900289D
:102F300006D1002000F067F8642000F0AEF8F3E757
:102F4000002000F0F7F8012806D1002000F05BF81F
:102F5000322000F0A2F8F3E7184800F06FF8FFF70E
:102F60008BFF642000F099F80020FFF789FFFFF73E
:102F70008BFFC0E710BD10B511480468012000F0B8
:102F800025F8012000F03FF80E48E4B20F2101FBC4
:102F900004F100EB0102E4B221000B4800F04EF80E
:102FA0004FF47A7000F079F8EBE700000CED00E0E8
:102FB0000400FA05F83F00009C4000002C4000008F
:102FC00004ED00E01404FF1F503E000010B50400A3
:102FD00064B2042C07DA01220121174864B2005DB3
:102FE00000F0C0F80EE0042004002000441E40B2AF
:102FF000002807D0012201210F4864B2005D00F0D3
:10300000B1F8F2E710BD10B5040064B2042C05DA83
:10301000094864B2005D00F042F90CE004200400AD
:103020002000441E40B2002805D0034864B2005D71
:1030300000F035F9F4E710BDAC0BFF1F0EB4C0B5BE
:10304000024603A800210190009101AB0121044830
:1030500078440C30FDF7E0F906BC5DF810FB00BFCA
:103060001B10000010B50400002C15D0B4F1807FB7
:1030700003D329210F48FFF714FF00200E490860F1
:103080000E48046000200E49086005200A490860C7
:1030900009480068C003FBD510BD10B5040020002E
:1030A000441E002804D007480068FFF7DBFFF6E75E
:1030B00010BD0000C83E000010E000E014E000E099
:1030C00018E000E0843B002010B5040064B2082C36
:1030D0000DDA00220021224864B2005D00F042F8BF
:1030E00003211F4864B2005DFFF78DFE14E0082045
:1030F00004002000441E40B200280DD00022002110
:10310000174864B2005D00F02DF80321144864B242
:10311000005DFFF778FEECE710BD10B50400104825
:1031200064B2005D00F0D9F8002801D1002000E071
:10313000012010BD10B50400200040B2FFF7EDFFE4
:1031400000280AD10A20FFF7A8FF200040B2FFF7AD
:10315000E4FF002801D1002000E0012010BD0000A4
:10316000A40BFF1F70B506000C0015004FF4807112
:103170003000C0B2FFF722FE64B2002C13D16748C2
:10318000F6B23100491150F821106448F6B232000D
:10319000521150F822004269012316F01F008340AB
:1031A0009A434A613CE05D48F6B23100491150F85B
:1031B00021105A48F6B23200521150F822004269EA
:1031C000012316F01F0083401A434A61EDB2002D1F
:1031D00013D15248F6B23100491150F8210001686C
:1031E000012216F01F00824091434C48F6B2320093
:1031F000521150F82200016012E04848F6B2310046
:10320000491150F821000168012216F01F00824088
:1032100011434248F6B23200521150F822000160C8
:1032200070BD38B505000C003C48EDB229004911CD
:1032300050F82100406915F01F01C840C00703D4B1
:1032400063213748FFF72DFEE4B2002C13D1334839
:10325000EDB22900491150F821000168012215F052
:103260001F00824091432D48EDB22A00521150F8C0
:103270002200016012E02948EDB22900491150F8FE
:1032800021000168012215F01F00824011432348EC
:10329000EDB22A00521150F82200016031BD10B584
:1032A00004001E48E4B22100491150F82100406991
:1032B00014F01F01C840C00703D47B211848FFF752
:1032C000F0FD1648E4B22100491150F82110012206
:1032D00014F01F008240CA6010BD10B504000F48F2
:1032E000E4B22100491150F82100406914F01F0197
:1032F000C840C00703D58C210948FFF7D2FD074815
:10330000E4B22100491150F82100006914F01F04B3
:10331000E04010F0010010BD000000001C0BFF1F7A
:10332000503F000080B54FF480718120FFF746FDCB
:103330004FF480718020FFF741FD01BD002108009E
:10334000482808D200BF00BF00BF00BF00BF00BFB9
:1033500000BF401CF4E7704780B5644800694069CD
:1033600050F002006149096948616048006940699C
:1033700050F001005D49096948615C4800690068D6
:1033800050F001005949096908605848006900680F
:1033900050F00200554909690860FFF7CFFFFFF7B9
:1033A000CDFF524800690068400840004F49096954
:1033B0000860FFF7C3FF4D480069006830F0020065
:1033C0004A4909690860FFF7B9FF01BD80B5474860
:1033D0000069406950F00200444909694861434866
:1033E0000069406950F001004049096948613F485F
:1033F0000069006850F002003C4909690860FFF765
:103400009DFF3A480069006850F00100374909699A
:103410000860FFF793FF01BD70B5040033480069F1
:10342000406950F0010031490969486100200500F8
:10343000EDB2082D2BDA200608D52C48006900686B
:1034400050F0010029490969086007E02748006930
:103450000068400840002549096908606400FFF7DA
:103460006DFF22480069006850F002001F49096999
:103470000860FFF763FF1D480069006830F0020034
:103480001A4909690860FFF759FF6D1CD0E7174812
:103490000069006840084000144909690860134841
:1034A0000069406940084000104909694861FFF718
:1034B00045FF0E480069006850F002000B49096999
:1034C0000860FFF73BFF09480069006910F0010040
:1034D000060006480069006830F0020003490969E7
:1034E0000860FFF72BFF3000C0B270BD1C0BFF1F40
:1034F0002DE9F04105000E001700002080465FFA1C
:1035000088F8B8F1C80F2EDAFFF718FFFFF724FF8D
:103510002800C0B2FFF780FF0400E4B2012C02D102
:10352000FFF754FF1CE03000C0B2FFF775FF040046
:10353000E4B2012C02D1FFF749FF11E03800C0B21C
:10354000FFF76AFF0400E4B2012C02D1FFF73EFF4F
:1035500006E0FFF73BFFE4B2002C01D1002003E0BE
:1035600018F10108CBE70120BDE8F0812DE9F8430F
:1035700004000D002000800910F00700C0B25FEACF
:1035800040192000103810F03F00C0B2C000060003
:1035900016EB09008046EDB218EBC500401E07008F
:1035A00038004146C0B2C9B288420ED30022002181
:1035B0004046C0B2FFF7D6FD4FF481714046C0B21D
:1035C000FFF7FCFB18F10108EAE7BDE8F1832DE9FC
:1035D000F84F05000E00170098469DF92840DDF8C9
:1035E0002C90DDF830A064B2002C02D15FF0010B0A
:1035F0000DE064B2012C02D15FF0020B07E064B26F
:10360000022C02D15FF0040B01E05FF0100B64B2FA
:10361000002C05D15A48864202D35A48B0421DD2E6
:1036200064B2012C09D15648864206D35648B042AE
:1036300003D316F00300032810D164B2022C09D181
:103640004F48864206D35148B04203D316F00300D8
:10365000002803D061214E48FFF723FCB9F5004F45
:1036600003D363214A48FFF71CFC4A48006850F026
:103670000200484908604848006850F00200464986
:10368000086046486DB26901465044486DB2690110
:1036900008440761002041496DB26A0111448880E5
:1036A0005FFA8BFB3D486DB269010844A0F814B085
:1036B00064B2210211F4E06164B214F00700014326
:1036C00036486DB26A011044C18048464004400C3F
:1036D00032496DB26A011144C88248464004400C28
:1036E0002E496DB26A011144C8832D48006830F03C
:1036F00080002B4908605FFA8BFB28486DB2690196
:103700000844C0F808B0002024496DB26A01114491
:10371000C8605FEACA7002D4D9F1000000E000205E
:103720001E496DB26A01114488614CF20A001B49BE
:103730006DB26A01114488834046C0B240093130FD
:1037400050F0800017496DB2485517494046C0B245
:10375000FFF734FB5946C9B23000FFF707FF1348A3
:1037600000680121A940884310490860104800689A
:103770000121A94008430E490860BDE8F18F00000F
:1037800010F00F4013F10F4012F10F4010F10F40F5
:10379000F83E0000408004403C800440009000401F
:1037A0000080004000100240000101000C80004039
:1037B00024800040DFF800F09B300000DFF800F0CC
:1037C000A32E0000F0204D4908704C4800780006F8
:1037D000FBD54A48007810F0710F01D0002000E0BE
:1037E0000120704780B54648006850F400204449E5
:1037F00008604448006850F40020424908603F488F
:1038000000780006FBD5F0203C4908700A20FFF73D
:10381000D1FF01BD10B582B00400A4B24FF4006026
:1038200000FB04F000900920374908709DF8020061
:10383000364908709DF80100354908709DF8000070
:1038400034490870FFF7BEFF002801D100200CE0CA
:10385000A4B2002C08D17FF0010240F20C412000FC
:1038600080B200F003F800E0012016BD7CB5040032
:103870000D001600A4B24FF40060ADB200FB04507E
:103880000190ADB2042095FBF0F100FB115000282F
:1038900003D0EA212048FFF791FFADB240F60100C6
:1038A000854203DBEC211C48FFF788FF9DF80600EA
:1038B000164908709DF80500154908709DF8040028
:1038C0001449087000969DF80300144908709DF88B
:1038D0000200134908709DF80100124908709DF814
:1038E000000011490870062007490870FFF76AFFB9
:1038F000002801D1002000E0012076BD0000024038
:1039000004F0014008F001400700024006000240B8
:103910000500024004000240243F00000B0002406A
:103920000A0002400900024008000240F0B4114EB3
:10393000366834000F4E366856F47F060D4F3E60F1
:103940000E0616F0706656EA0076170517F4700733
:103950003E431F0417F470273E43074F3E60002686
:103960003500EDB29D4201D26D1CFAE7014E346084
:10397000F0BC704700F0014044800440012210F088
:103980001F018A40564940B203005B0941F82320D9
:103990007047012210F01F018A40524940B20300D3
:1039A0005B0941F82320704710B584B00122012142
:1039B0004020FFF7D7FB4FF4FA70FFF76EFBFFF7DD
:1039C000B1FC0024012211214220FFF791FD54FA9D
:1039D00080F00400012213214220FFF789FD54FAF0
:1039E00080F00400242214214220FFF781FD54FAC4
:1039F00080F00400032216214220FFF779FD54FADB
:103A000080F00400D5222D214220FFF771FD54FAE9
:103A100080F00400002228214220FFF769FD54FABB
:103A200080F00400012270214220FFF761FD54FA6A
:103A300080F0040000214020FFF7F3FB01200290FA
:103A40004FF4A0700190002000901323264A2749CC
:103A50000420FFF7BCFD5920FFF79BFF24491320EA
:103A6000FFF7ACF923494620FFF7A8F92249472080
:103A7000FFF7A4F90020214908705920FFF77EFFC5
:103A800006201E4908701FBD1D480078F1280ADA7B
:103A90001C48006850F010001A4908601848007867
:103AA000401C17490870704717480078002814D048
:103AB0000D48164908600020114908700F48007829
:103AC00090F080000D4908700C48007810F0FE005E
:103AD0000A49087000200C49087070470000000077
:103AE00000E100E080E100E0440EFF1FD0F00F4055
:103AF000030101000201090003010A00780CFF1F05
:103B0000E43B00200C800040790CFF1F90900040A7
:103B100010F00703494909680A004FF6FF010A40FF
:103B2000474951EA03210A4344490A607047434820
:103B30000068C0F30220704710B440B2002808D5D6
:103B40000A01404B40B210F00F04234403F8042C48
:103B500003E00A013C4B40B21A5410BC704770B4E9
:103B6000030013F00704D4F10706052E01D3042047
:103B700001E0D4F10700261D072E01D2002500E048
:103B8000E51E012616FA00F0401E0140A940012062
:103B900010FA05F56D1E2A401143080070BC7047ED
:103BA00070B50124002201219A20FFF7DBFA0122DF
:103BB00001216F20FFF7D6FA5FF4E1310420FEF710
:103BC000CDFF00F049F864B2002C01D0FFF7ECFE05
:103BD00064B2002C30D01D480078C007FBD45FF0E1
:103BE000FF310420FFF7CEF80025F02D20DA002663
:103BF000B6F5A07F1ADA164800684FF4A07101FBF1
:103C000005F10844805DFF2801D1FE2007E010483F
:103C100000684FF4A07101FB05F10844805D0100CC
:103C200049B20420FFF7AEF8761CE1E76D1CDCE733
:103C3000012008490870CBE770BD00000CED00E0E2
:103C40000000FA0518ED00E000E400E0780CFF1F2A
:103C50001004FF1F790CFF1F80B50020FFF758FFED
:103C6000FFF765FF00220021FFF779FF01005920CF
:103C7000FFF762FF01BD000080B500F093F800F08F
:103C80002AF800F00AF8FFF729F90122012104209F
:103C9000FFF768FAFFF784FFFEE780B50320FEF721
:103CA000F6FE32490860314801684FF47A704143AA
:103CB0002F4801602E4800682E490968C1F303614E
:103CC000491CB0FBF1F02C4908605FF4E13104209D
:103CD000FEF744FF01BD2DE9F843284828498842F2
:103CE0000DD000208146B9F5826F08D2244850F8E3
:103CF0002900224941F8290019F10109F3E71F4879
:103D000000F070F81F4804001F4805001F48060017
:103D1000701B81464846B0F10109002804D028787C
:103D200020706D1C641CF5E719480700194880468F
:103D3000B8EB070081464846B0F10109002803D0DE
:103D4000002038707F1CF6E71349144A144B981A68
:103D500081464846B0F10109002804D01078087067
:103D6000521C491CF5E7BDE8F1830000883B0020A8
:103D7000843B0020448004408C3B00200000FF1F57
:103D8000000000001004FF1F101F00007C2700002F
:103D9000440EFF1FE83B00207C0CFF1FB4370000DF
:103DA0007C39000080B500F008F80C4801884FF617
:103DB000FE7001400948018001BDEFF3118072B629
:103DC0004CF22051064A11804DF62811044A118008
:103DD000C0B2002800D162B6704700000020054044
:103DE0000E20054010B504004FF4007094FBF0F174
:103DF00000FB1140002803D01E210348FFF751F8B3
:103E00000248046010BD0000A83F000008ED00E07B
:103E100019E050F8042BD30744BFA9F101039A1805
:103E2000091F0023042942F8043BF9D25FEA817C90
:103E3000134604D54FF0000CA2F800C09B1CC90724
:103E400044BF0021197050F8041B0029E1D17047CC
:103E50000A2A2A2A2A64656661756C745F6973721E
:103E600020656E7465726564206F6E20766563747C
:103E70006F722025642A2A2A2A2A0A0A25732049D1
:103E80006E746572727570740000000080B50D4824
:103E90000068000607D50B48006850F0800009490B
:103EA0000860FFF701FE07480068400607D505488F
:103EB000006850F0400003490860FFF7E5FD01BDD0
:103EC00000000000A0B00440453A5C30354E585028
:103ED0005C467265655363616C655F585C436869F5
:103EE000705C7372635C4D4B36305F537973546909
:103EF000636B2E6300000000453A5C30354E58502D
:103F00005C467265655363616C655F585C436869C4
:103F1000705C7372635C4D4B36305F646D612E6311
:103F200000000000453A5C30354E58505C467265E2
:103F3000655363616C655F585C436869705C73725C
:103F4000635C4D4B36305F666C6173682E630000B6
:103F5000453A5C30354E58505C4672656553636136
:103F60006C655F585C436869705C7372635C4D4B51
:103F700036305F6770696F2E63000000453A5C3031
:103F8000354E58505C467265655363616C655F5889
:103F90005C436869705C7372635C4D4B36305F756F
:103FA0006172742E63000000453A5C30354E585003
:103FB0005C467265655363616C655F585C43686914
:103FC000705C7372635C6D6973632E630000000044
:103FD00010B5074979441831064C7C44163404E086
:103FE0000A68081D114488470146A142F8D110BD56
:103FF0002C00000038000000417373657274696F13
:104000006E206661696C656420696E20257320618D
:1040100074206C696E652025640A0000F5FDFFFFC1
:10402000A42D0100440EFF1F000000000ABDF8D0BF
:10403000D0BDE2CBF8B2D9D7F7A3ACC7EBD6D8D076
:10404000C2CBA2C8EBB9CCBCFE00000000F00BF85C
:10405000002801D0FFF7BCFF0020AFF30080FFF77E
:104060009FFD00F002F80120704700F001B8000049
:1040700007463846FDF742FFFBE738B504460D46D4
:10408000284600F005F8A84218BF0024204632BD9B
:104090000149FEF719BF00BFB00BFF1F0ABDF8C8EA
:1040A000EBCBC0D1ADBBB7B5C8B4FDA3A100000038
:1040B000AFF30080AFF30080FFF7C8FF00002E00D1
:0240C0004300BB
:04000005000040B106
:00000001FF
