:10000000F8FF0020110400008B2E00008B2E000052
:100010008B2E00008B2E00008B2E00008B2E0000FC
:100020008B2E00008B2E00008B2E00008B2E0000EC
:100030008B2E00008B2E00008B2E00008B2E0000DC
:100040008B2E00008B2E00008B2E00008B2E0000CC
:10040000FFFFFFFFFFFFFFFFFFFFFFFFFEFFFFFFFD
:1004100062B604F023FBFEE72DE9F0439FB081466E
:100420002698DFF8F88B8DF83B00174600201E4613
:1004300002910B900FF270144FF0FF350AE017F89D
:10044000011B0298C8470028029000F09A800B9880
:10045000401C0B90387850B12528F0D100200021A5
:10046000059006910790089109900A9103E00B9876
:100470009EE041F0010117F8010F2028F9D0232850
:100480000DD02B2804D02D2806D030280AD07AE0B1
:1004900041F0020189B2EEE741F00401FAE741F0D0
:1004A0000801F7E741F01001F4E700200D9009E0A2
:1004B0000D98404505DA00EB800302EB4302303A29
:1004C0000D927F1C3A78A2F130000A28F0D33A78D6
:1004D0002E2A18BF0C9523D117F8010F2A2807D10F
:1004E000306830607F1C50F8042B30600C9217E0AD
:1004F0002D280CBF17F8010B002000220C920AE0F7
:1005000040B90C9A424505DA02EB820203EB420342
:10051000303B0C937F1C3B78A3F130020A2AEFD3C7
:10052000ADF838102046397800F01AFF08B117F8F6
:10053000010B8DF83A009DF83A00682804BF39781D
:10054000682903D162208DF83A0007E06C2804BFC7
:1005500038786C2803D171218DF83A107F1C10A8CF
:100560000490324617F8013B6946484600F060F8AF
:1005700038B910AA6946484600F0C2F900287FF54C
:1005800069AF284614E02A288FD13068306050F8CF
:10059000042B3060002A0D9204D5524241F0040130
:1005A0000D9289B27F1C92E7686A6C747A4C0000E5
:1005B0001FB0BDE8F083622820D0682811D06A28D7
:1005C00003D06C2827D0712825D10868C01D20F0E1
:1005D00007000860D0E9002308300860194610467B
:1005E0007047002A0A680A60106803D0121D0A606A
:1005F00000B217E0121D0A6080B217E0002A0A68F4
:100600000A60106803D0121D0A6040B20AE0121D91
:100610000A60C0B20AE0002A0A680A60106803D0C3
:10062000121D0A60C1177047121D0A600021704731
:100630007CB50D4611461C462E69B4F1250200F02A
:100640004D811C3A00F08680121F022A40F28280FF
:100650000E3A00F00781521F5AD0093A7AD0921E02
:1006600016D0521E35D0521E022A73D9121F30D016
:10067000521F00F09A80521E4AD0521E00F0E480B1
:10068000D21E00F0FD80921E42D0D21E40D02BE13F
:1006900095F83A206C2A09D06869421C6A610A6898
:1006A0000A6052F8043B0A60335427E10A680A6082
:1006B00052F8043B0A600021009301914FF0FF3291
:1006C0002A6329466A4600F0A2F9002840F1168103
:1006D00001E195F83A000122FFF76DFFC5E900013D
:1006E0000023994204DA6869411C69612D210DE0FB
:1006F000288F810704D56869411C69612B2105E0B9
:10070000C00722D56869411C6961202131541CE071
:1007100095F83A000022FFF74EFFC5E9000195F871
:100720003800010711D5D5E900230020834208BF16
:1007300082420AD044F02000782806D1686930212E
:100740003154401C411C696134542146686930446D
:10075000E86083E00868C01D20F007000860D0E969
:10076000002308300860C5E90023D5E90001C80F5F
:1007700004D06869411C69612D210DE0288F810733
:1007800004D56869411C69612B2105E0C00704D5C7
:100790006869411C69612021315468693044E8600E
:1007A0002146284600F03BFAA8E005F13A025078CD
:1007B00020B14FF0FF340FF6143070E0107862284B
:1007C00008D0682824D06A2812D06C282ED071282E
:1007D0000ED02BE00A680A6052F8040B0A6020B9B8
:1007E0004FF0FF340FF6FC2059E0E96A017085E014
:1007F0000A680A6052F8040B0A6020B94FF0FF340F
:100800000FF6E0204BE0EA6AD317C0E9002375E059
:100810000A680A6052F8040B0A6020B94FF0FF34EE
:100820000FF6C0203BE0E96A018067E00A680A60D1
:1008300052F8040B0A6020B94FF0FF340FF6A420E1
:100840002DE0E96A016059E00A680A6052F8040B79
:100850000A600021C5E90001EE607821284600F019
:1008600036F94BE06C2285F83A200B680B6053F8A0
:10087000042B0B6052BB4FF0FF340FF69C200EE0B0
:1008800095F83A206C2AF0D00868086050F8044BBC
:100890000860EC603CB94FF0FF340FF6602000F0C8
:1008A0006BFD201A76BD2E6B002E04D5204600F07D
:1008B00085FD044608E032460021204600F09AFDFE
:1008C000002814BF041B3446AC6117E0294600F031
:1008D0009EF8002812D54FF0FF3076BD6869411CA4
:1008E00069612521315409E06869411C696125224B
:1008F0003254200002D0481C68617454002076BD38
:100900002DE9F0410F4682B00646796B7869BC6AE2
:10091000091A386A091AB869091A786A091AF86945
:10092000091A97F838000C1B410790460FD4202174
:10093000002C8DF800100ADD254601236A46394651
:10094000304600F0ABFC00285DD16D1EF5D17B690F
:1009500042463946304600F0A1FC002853D13020F1
:100960008DF800003D6A002D09DD01236A463946F5
:10097000304600F093FC002845D16D1EF5D1BB69CF
:10098000FA683946304600F089FC00283BD1302017
:100990008DF800007D6A002D08DD01236A46394686
:1009A000304600F07BFC70BB6D1EF6D1F868B9696B
:1009B000FB6942183946304600F070FC18BB302005
:1009C0008DF80000BD6A002D08DD01236A46394616
:1009D000304600F063FCB0B96D1EF6D197F83800D0
:1009E00041070DD52021002C8DF8001008DD0123D2
:1009F0006A463946304600F051FC20B9641EF6D1F3
:100A00000020BDE8F6814FF0FF30BDE8F6812DE90A
:100A1000F0470D46A4B02E6B002E8046914648BF8D
:100A20006FF0004600F012FD0246686B0FF60413EB
:100A30001218D3E90001CDE90101812A28BF4FF046
:100A4000FF303ED20024002E2FDDD9F8001001AA7D
:100A5000684600F005FD0746002F35D4D9F80000A0
:100A600008B97F1E30D4BE421FDB68693818812860
:100A70000AD30020686303AA29464046FFF740FFD7
:100A8000040012D40020686103A8D5F814A03A46E7
:100A90006946504400F0EEFCBA44C5F814A059F879
:100AA000040B002818BFF61BCDD12CB903AA294688
:100AB0004046FFF725FF044614B9002068616863CB
:100AC000204624B0BDE8F0874FF0FF34F8E72DE969
:100AD000F04704468A462569BAF16F0F08BF082718
:100AE00005D04AF02000782814BF0A2710273C269A
:100AF000D4E90001BAF1640F18BFBAF1690F80465A
:100B0000894607D10B4600218B4203DAD8F1000851
:100B100069EB49090020814508BF80451FD1206B42
:100B2000E8B9082F47D194F83800010743D53020A1
:100B30003B2685F83B003EE000280ED594F83800AF
:100B400000F01400102808D1626B6069121A206A44
:100B5000121A561A002EC8BF2662BDE8F08740461A
:100B600049463A46FB1700F0D9FC3032761ED2B225
:100B70003A2AA4BFAAF151008218AA554046494614
:100B80003A46FB1700F0CAFC8046894600208145A2
:100B900008BF804503D0E068A9198842DFD3082F39
:100BA00009D194F83800010705D5A95D302902D094
:100BB000761E3020A855A819E060C6F13C01206BD4
:100BC000A1618142B8DA411A21624FF6EF70218F9C
:100BD00001402187BDE8F0872DE9D04306460F4646
:100BE00014464FF00008DFF8389412E0E00707D50C
:100BF00042464B463046394600F008FD06460F4651
:100C00004046494642464B4600F000FD641080468F
:100C10008946002CEAD130463946BDE8D0832DE91B
:100C2000F04F0446884648F020008DB0D4E9009B80
:100C3000612802AE0BD0206B002802D5062020636D
:100C400005E001BF48F02000672801212163D4E9B5
:100C500000A568004015401C0DD129030BD0A8F158
:100C6000610103201A29A06102D20FF2D06110E0C5
:100C70000FF2CC610DE068004015401C0ED1290335
:100C80000CD1A8F1610103201A29A06116D30FF23B
:100C9000B861E068032200F0EDFBD1E125F00041EE
:100CA000B1F5801F2AF0000211D20027B94208BF17
:100CB000BA42019705D15046294613E00FF28461EC
:100CC000E7E701AA5046294600F072FD0AE0DFF886
:100CD000542302EB1150DFF8501301900D40D3491B
:100CE00050462943C4E9000148F02002612A0DD191
:100CF000E06830210170811CE160B8F1610F0CBF28
:100D00007821582141706069801C6061D4E900A598
:100D100025F0004300202AF00002834204BF8242F3
:100D2000002300F0548148F02000612840F09F80AB
:100D3000206B00284CBF2120401C00904846009F9B
:100D40007F1C59460022002300F06AFDAB46019843
:100D50008DF8082038BF8BF0004BD146001F002FC4
:100D600001900DF1090A40F3408140F2FF754846B9
:100D700059460022002300F06BFD80F036815A4670
:100D80005000400D00F11C010FD000290DDDA942DB
:100D900005DBA7490BF000400143002012E06FF390
:100DA0001E5242EA015148460CE02BF0004129F066
:100DB0000000994208BF98420FBF59461C2259466D
:100DC00000F05EFD81468B4600F0F8FDFF1F002F0E
:100DD000064609DD00F010FE02460B46484659461D
:100DE00000F01CFE81468B460AF10700072104E053
:100DF00006F00F0200F8012D3611002E01DD491E0C
:100E0000F6D5491E5CBF002200F8012DF9D5E7E0B8
:100E10000020194602AA0A4400E05B1E12F801599C
:100E2000491E8542F9D00F2804D10DF10900425C1A
:100E3000521C4254002904D50198001D02AE5B1CCF
:100E40000190581E0CD43118A8F13A050A783032B6
:100E5000D2B2392AC8BFAA18401E01F80129F5D517
:100E6000206B002840F1B280591E2163AEE0484655
:100E700059460022002300F0D3FC019938BF8BF0C3
:100E8000004B47F2975041436A4A91FBF2F20192BC
:100E9000D2F1070204DD48465946FFF79DFE0AE0FD
:100EA000524200206449FFF797FE02460B4648462F
:100EB000594600F025FE814648F020006628206B48
:100EC0005E4D06BF019E0A3606263618142EC8BF90
:100ED000142630208B468DF808000DF10907002EEE
:100EE00033DD4846594600F02FFF01460A4607F118
:100EF000080304200A27B2FBF7F707EB870EA2EBE3
:100F00004E02303203F8012C0A22B7FBF2F202EB58
:100F1000820EA7EB4E073037401E03F8027DE9D161
:100F2000083E002E03F10807D9DD084600F020FF37
:100F300002460B464846594600F070FD00222B46FB
:100F400000F064FB81468B46CBE70DF10900381AAF
:100F50000DF1090604E00199491E401E0191761C1D
:100F600031783029F7D048F02002662A02D1019961
:100F7000491C05E048F0200165290CBF0121002132
:100F8000236BCB189842B8BF431E002B1ED483425C
:100F900004DAF05C3528A8BF392000DA3020194681
:100FA000721E02EB010900E05B1E19F801B9491E2F
:100FB0008345F9D0392802D1705C401C7054002957
:100FC00004D50198401C16465B1C0190019800B2A4
:100FD00000901BB232464146204600F034F82FE024
:100FE000002F00F1070A3FF7C2AE0DF10900AAEB8E
:100FF000000100980B468142C8BF0346002B0DF14B
:1010000009063FF52DAF8B42BFF602AF0DF1090087
:10101000C05C07287FF7FCAE0F20FAE6CBCCCC0CE7
:101020000000244002FCFFFFFFFF0F800000E03FB4
:101030000000F07FA08601000000F03F84D79741B8
:101040000DB0BDE8F08F2DE9F04784B00546894624
:1010500092461F4600F006FA002F406A2E6B90F869
:10106000008002DC01270FF2E42ABDF9304049F08C
:101070002000662808BF641C12D0672877D114F1BD
:10108000040F7ADBB44278DA95F83800641C010763
:1010900002D4B742B8BF3E4624B2361B48BF002632
:1010A00024B2E868A969002C22DC4A1C302343548E
:1010B000002E03DC95F83800010703D5E86800F836
:1010C0000280521CE642B8BF744224B2A6196042A4
:1010D000BE42B8BF3746AA6168623FB2EF61E868B6
:1010E000AB693A465146184400F0C4F9F61B18E0C3
:1010F00022469742084416DA3A46514600F0BAF9B9
:10110000A9697918E01B002EA961686203DC95F8D3
:101110003800020705D5E86800F80180E869401C3E
:10112000E861AE62A3E0514600F0A4F9A869201876
:101130003F1B002E03DC95F838100A0703D5E96839
:1011400001F80080401CA8613FB2BE42B8BF3746DC
:10115000E868AB693FB23A460AEB0401184400F074
:1011600089F9A8693818A861F61B6E627FE0B9F1A9
:10117000610F14D14FF0700916E0B74204DA95F808
:1011800038100A0758BF3E46761E48BF0026B9F100
:10119000670F14BF4FF045094FF0650904E0B9F13E
:1011A000410F08BF4FF05009A969EB68481CA861BE
:1011B000002E1AF8012B5A5403DC95F838100A0750
:1011C00017D5E968431CAB6101F80080002E10DDE3
:1011D0007F1E3FB2BE42B8BF3746E8683FB23A46CC
:1011E0005146184400F046F9A8693818A861F61B62
:1011F0006E62E868A9690844002C80F8009004D465
:101200002B21417000F1020A04E02D21417000F110
:10121000020A644200206A460AE021460A2391FB42
:10122000F3F404EB8403A1EB430102F8011B401C1F
:1012300024B2002CF1DC012806DC49F020016529EC
:1012400004BF30210AF8011B48B930200AF8010B0D
:1012500007E0401E1DF8001030310AF8011B00287D
:10126000F7DCE868A9690844AAEB0000E86195F892
:10127000380000F0140010280DD16969A8694118E0
:10128000686A4118E8694118A86A4118686B814288
:10129000BCBF411A296204B0BDE8F087F8B5054625
:1012A0000E4617461C46002074B117F8011BB068A3
:1012B000A847B06030B1F06A401CF0620020641EA4
:1012C000F3D1F2BD4FF0FF30F2BD00007072696ED5
:1012D00074665F733A20256E20646973616C6C6F6D
:1012E000776564007072696E74663A20626164208A
:1012F000256E20617267756D656E74007072696E1F
:1013000074665F733A20626164202573206172679E
:10131000756D656E740000007072696E74665F733F
:101320003A2062616420256C7320617267756D6577
:101330006E74000000000000000000006E616E008E
:101340004E414E00696E6600494E46003000B1F5D0
:10135000807F02D34FF0FF3070470170012070474B
:101360000278C9B28A421AB11CBF10F8012FF9E7FE
:1013700018BF0020704702FD80B508B90FF21C00AD
:1013800005490B681BB122220021984701E000F0BB
:10139000FCFC222002BD00005C13FF1F636F6E7314
:1013A000747261696E742068616E646C65723A2053
:1013B000626164206D6573736167650000F101030C
:1013C000810704D010F8011B89B18107FAD10268A6
:1013D000B2F10131914311F0803F04BF50F8042F66
:1013E000F6E710F8011B11B110F8011BFBE7C01A5A
:1013F0007047FD02C9B2830706D0521E22D310F8EF
:10140000013B9942F7D11FE0083A13D302F10402DD
:1014100041EA012141EA014150F8043B121F21BF7A
:101420004B40A3F1013C2CEA030C1CF0803FF3D0AD
:10143000C9B2001F083210F8013B521E28BF91EAC2
:10144000030FF8D818BF0120401E704780B500F088
:1014500003F8006C02BD000004487047DA6B1047C7
:10146000024BFBE70248704700000000500CFF1FD2
:10147000180CFF1F62B38B0708D0521E11F8013BF6
:1014800000F8013B00F024808B07F6D1830740F081
:10149000208000BF103A07D330B4B1E83810103ABA
:1014A000A0E83810F9D230BC530724BFB1E80810C7
:1014B000A0E8081044BF51F8043B40F8043BD207B1
:1014C00024BF31F8022B20F8022B44BF0B780370A5
:1014D0007047121F17D35B0009D151F8043B20F865
:1014E000023B1B0C121F20F8023BF6D20BE051F816
:1014F000043B00F8013B1B0A20F8023B1B0C121FA7
:1015000000F8013BF3D238BF121D521E24BF11F860
:10151000013B00F8013BF8D8704700001B4213D193
:10152000094236D12AB18446B0FBF2F002FB10C268
:10153000704700F02DBCFCD30022002370470B0045
:101540000200002100207047904271EB030CF6D39B
:1015500070B5B1FA81F4B3FA83F52C1BA340C4F142
:10156000200532FA05F63343A2405FF00046E6401C
:1015700002E05B085FEA3202841A71EB030524BFC4
:10158000204629467641F4D302000B0030000021AA
:1015900070BD012ACFD970B5140C20D0B1FA81F4F6
:1015A000B2FA82F5C4F120046419B4F12006D6D34E
:1015B000B2405FF00044F440002502E052085FEAC8
:1015C0003303C61A71EB020E24BF304671466441E4
:1015D0006D41F3D302000B002000290070BD0C46C2
:1015E000B1FBF2F102FB11452D0445EA1045B5FBB4
:1015F000F2F402FB145580B240EA0545B5FBF2F067
:1016000002FB105240EA044070BD0000B0B581EA10
:10161000030C0CF0004C40F2FF7515EA11541DBF8D
:1016200015EA1357AC42AF4239E0E41923EA4553B7
:1016300043F48013C90241F0004141EA505EC70201
:101640001100A7FB020200284FF00000EEFB012072
:101650004FF00001E3FB072118BF42F001024018E0
:1016600000214941E3FB0E01A4F580640F0302D27F
:1016700052004041494154F101046CDD470872F1C8
:10168000004250F1000051EB0451A1F580115CBF04
:1016900041EA0C01B0BD4CEA05510020B0BD05EA9D
:1016A0001357AC4214BFAF4241E050EA410E1CBF99
:1016B00052EA430E02E061460020B0BD24423C44A1
:1016C0001BD15FEA070EF6D0090302BF01460020D6
:1016D000AEF1140EB1FA81F7AEEB070401FA07FE82
:1016E0000C37C7F1200100FA07F7C8404EEA000E98
:1016F00023EA455343F48013A2E733F00043B3FADF
:1017000083F704BFB2FA82FE77440B3FE41BB7F1C4
:10171000200E2FBF02FA0EF3BB40C7F1200E22FAB3
:101720000EFE38BF43EA0E03BA40641C82E750EA5B
:10173000410E14BF52EA430E6FF000014FF4001740
:1017400017EB430F8ABF194617EB410FB5E74CEA79
:1017500005510020B0BDD4F10104B4F120070FDA27
:10176000C4F12007520828BF42F0010210FA07F521
:1017700001FA07F7E1BF2A43E0403843E1400FE0B8
:10178000352C98DCC7F1200452EA400220FA07F217
:1017900018BF42F0010231FA07F0A1400A430021CC
:1017A00072F1004250F1000051EB0C01B0BD00009D
:1017B00010B5144600F002F8226010BDC1F30A53C0
:1017C00043B14A0012F5001F28D2A3F2FE32A1EB6A
:1017D0000251704750EA410C20D001F0004C31EA30
:1017E0000C01B1FA81F204BFB0FA80F3D2180B3ABF
:1017F000B2F120032CBF00FA03F1914041EA0C0141
:101800003EBFC2F1200C20FA0CF319439040524223
:1018100040F2FD33D21A01EB0351704700227047AA
:101820004FF4001C1CEB410F94BF1CEB430F09E06D
:1018300041EA030C50EA4C0C52EA0C0C03D29942D8
:1018400008BF9042704714BF8B428242704700002D
:101850004FF4001C1CEB410F94BF1CEB430F09E03D
:1018600041EA030C50EA4C0C52EA0C0C03D28B42B6
:1018700008BF8242704714BF9942904270470000EF
:10188000124254D440F2FF7C1CEA11530FD063453E
:1018900031D09B1863453CBF01EB0251704701F00A
:1018A000004141EA0C510020AFF30080704750EA3C
:1018B000410320D001F0004C91EA0C011CD0B1FA98
:1018C00081F30B3B9A420DD9D21A994051EA0C018F
:1018D000C3F1200C20FA0CFC61449840531C40F2E8
:1018E000FF7CD7E7914041EA0C01C2F1200C20FABD
:1018F0000CF3194390407047B0FA80F31533202B56
:10190000E0D3202AEED3203A203B9A4209D9D21ABA
:1019100000FA03F141EA0C010020531C40F2FF7C65
:10192000B8E700FA02F141EA0C0100207047524288
:1019300040F2FF7C1CEA11530DD06345DBD0B2EBC3
:10194000030C3CBFA1EB025170470CF1010221EAEC
:10195000035141F4801150EA410CCCD001F0004C0D
:10196000352A27DC30B481EA0C01B2F1200309DA10
:10197000C2F12003044601FA03F5D0402843D140C8
:101980009C400CE0C3F12002450020FA03F418BF8C
:1019900044F0010421FA03F091400C43002174F15A
:1019A000004550F1000051EB0C01244230BC7FF4A3
:1019B0007BAF70476146002076E70000C1F30A5311
:1019C00040F2FE329B1A14DDD3F120034FEAE1729C
:1019D00008DDC90241EA505141F00040D84080186A
:1019E0005040704703F2E13010B1D24382F0004022
:1019F0007047002070470000C11768B14840401A86
:101A0000B0FA80F29040D21CC907C2F5846241EA64
:101A1000025202EBD02140057047000070B44FF035
:101A2000004591EA030F40F1B5816B40841A71EBD8
:101A3000030603D2001BB141121973414FF4001C7D
:101A40001CEB410F34BF7CEB430442E00C0DA4EBD4
:101A50001356352E4FDC45EAC323DB0A45EAC12184
:101A6000C912B6F120050DDD63FA05F6EB4086EAF2
:101A70000305124218BF45F00105C01851F10001DD
:101A80000CD213E062FA06F5F2405540F3415A4099
:101A9000B340F3405A408018594107D349085FEAE0
:101AA00030005FEA350528BF45F0010501F58011DA
:101AB000420875F1004250F1000041EB04514E0024
:101AC00016F5001F70BC38BF70470020090D0905CE
:101AD00070471CEB410F10D252EA43060BD0BCEB0F
:101AE000410F05D80C0DAB43661E342EB6DD02E067
:101AF000AB438018594170BC704770BC7047000000
:101B0000F0B540F2FF7581EA030C0CF0004C15EAC9
:101B100011541DBF15EA1357AC42AF42E5E0BC417A
:101B2000C1F31301C3F31303801A994143F48013E3
:101B300004D2641E4000494180185941C90241EA5B
:101B40005051B1FBF3F603FB1611A2FB0675D7EB60
:101B5000C020A94102D2761E80185941C90241EA2B
:101B60005051B1FBF3FE03FB1E11A2FB0E75D7EB28
:101B7000C020A94103D2AEF1010E8018594189025B
:101B800041EA9051760546EA8E2EB1FBF3F603FB4F
:101B90001611A2FB0675D7EB8020A94102D2761E52
:101BA00080185941C90241EA50514EEA060EB1FB74
:101BB000F3F603FB1611A2FB0675D7EBC020A94173
:101BC00002D2761E80185941C90241EA5051B1FB38
:101BD000F3F703FB1711A2FB0735D3EBC020A94194
:101BE00067F100070CBF004247F0010766F3D527F5
:101BF0004FEA1E31B80814F5806412DDBD0775F197
:101C0000004250EB0E5051EB045111F5801F5CBFA8
:101C100041EA0C01F0BD4CF07F6141F0E041002051
:101C2000F0BDBD076D0840EA0E5041F48011D4F1BB
:101C30000104B4F120060ADAC4F120060200E040F3
:101C400001FA06F3E1401843B24015430EE0342C8C
:101C500013DCC6F1200445EA40056D0820FA06F2BF
:101C6000154321FA06F0A1400D43002175F1004211
:101C700050F1000051EB0C01F0BD00205FEA0C01B7
:101C8000F0BDCFB992185B41B3FA83F704BFB2FA43
:101C900082F6BF190B3FB7F120062FBF02FA06F3F9
:101CA000BB40C7F1200622FA06F638BF3343BA40DC
:101CB0001CB1E419641E33E77F4231F00041B1FAF0
:101CC00081F404BFB0FA80F6A4190B3CB4F12006ED
:101CD0002FBF00FA06F1A140C4F1200620FA06F653
:101CE00038BF3143A0403C1B1AE7AC421ABF05EA9B
:101CF0001357AF4212E050EA41061CBF52EA4306B6
:101D0000BFE750EA4107304661461CBF41EA055132
:101D1000F0BD52EA430C08BFC143F0BD00204FF4B0
:101D2000001616EB410F98BF16EB430F08BF16EBDA
:101D3000410F24BFC14305E016EB430F0CBF6146C2
:101D40004CEA0551F0BD0000400D491840EA8120E1
:101D50000CD2490DA1F58061491C40F0004005DB23
:101D6000D1F11F0154BFC840C01770470020704711
:101D7000014648B1B0FA80F18840C91CC1F58461C0
:101D8000090501EBD02140057047012000F0B6B8ED
:101D900070470000841A71EB030604D26E40001BEA
:101DA000B141121973414FF4001C1CEB410F34BFB9
:101DB0007CEB430682E00C0DA4EB1356362E7BDC45
:101DC000012E45EAC32341DC43EA525312BFD2023B
:101DD00092025B08240545EAC12141EA5051D2EB49
:101DE000C020994125D407D1B0FA80F610FA06F147
:101DF00062D00020203608E0B1FA81F6B140C6F189
:101E0000200220FA02F21143B0404FEAF474B4EB1E
:101E1000465434F001064FEA74040AD8D6F5001689
:101E2000760D04F00044F04061FA06F25040F140B3
:101E30004840C00A40EA415021F0004128BF5FEA13
:101E4000500550F1000044EBD12135E0DB0A45EAB2
:101E5000C121C90AB6F120050EDD42EA0242120C88
:101E6000C5F1200603FA06F6EB4042EA06056D428C
:101E7000984161F100010DE062FA06F5F24055402B
:101E800063FA06FC82EA0C02F3405A406D4290412C
:101E900061EB030111F4801F05D1641E620502D0BD
:101EA0006D004041494121F48011430875F1004320
:101EB00050F1000041EB045170BC70471CEB410F26
:101EC00015D223F0004352EA43060BD04FEA4C0CE4
:101ED000BCEB410F04D80C0D661E342EB7DDEBE7CA
:101EE000801A994150EA410608BF0021E4E708BF83
:101EF0001CEB430F28BF6FF00001DDE780B5AFF3A7
:101F00000080024A11001820ABBEFBE72600020049
:101F10000000A04000B0034000B00B4000000000F3
:101F200000000000000000000000000000000000B1
:101F3000000000000000000000004E6F6E4D617355
:101F40006B61626C650000000048617264466175F7
:101F50006C740000000000004D656D4D616E61679E
:101F6000656D656E7400004275734661756C740032
:101F700000000000000055736167654661756C7470
:101F80000000000000000000000000000000000051
:101F90000000000000000000000000000000000041
:101FA0000000000000000000000000000000000031
:101FB0000000000000000000000000000000000021
:101FC00000535643616C6C000000000000000000EC
:101FD00044656275674D6F6E69746F720000000032
:101FE000000000000000000000000000000050653C
:101FF0006E64535600000000000000000053797327
:102000005469636B0000000000000000444D413043
:102010000000000000000000000000444D413100BD
:1020200000000000000000000000444D41320000AC
:10203000000000000000000000444D41330000009B
:102040000000000000000000444D4134000000008A
:1020500000000000000000444D4135000000000079
:10206000000000000000444D413600000000000068
:102070000000000000444D41370000000000000057
:1020800000000000444D4138000000000000000046
:10209000000000444D413900000000000000000035
:1020A0000000444D413130000000000000000000FD
:1020B00000444D41313100000000000000000000EC
:1020C000444D413132000000000000000000004497
:1020D0004D41313300000000000000000000444D7D
:1020E00041313400000000000000000000444D4178
:1020F000313500000000000000000000444D415F49
:102100004572726F720000000000004D434D0000E8
:10211000000000000000000000004654464C000093
:10212000000000000000000000526561645F436F22
:102130006C6C6973696F6E004C56445F4C56570067
:10214000000000000000004C4C57000000000000A0
:102150000000000000005761746368646F6700004E
:102160000000000000524E47000000000000000088
:102170000000000049324330000000000000000071
:102180000000004932433100000000000000000060
:102190000000535049300000000000000000000023
:1021A0000053504931000000000000000000000012
:1021B00053504932000000000000000000000043BE
:1021C000414E305F4F525F4D425F62756600434142
:1021D0004E305F4275735F4F666600000043414EAC
:1021E000305F4572726F72000000000043414E3054
:1021F0005F54785F5761726E696E6743414E305F1E
:1022000052785F5761726E696E6743414E305F5717
:10221000616B655F5570000000526573657276658D
:1022200064353100000000005265736572766564A4
:102230003532000000000043414E315F4F525F4D88
:10224000425F6275660043414E315F4275735F4F76
:10225000666600000043414E315F4572726F720046
:102260000000000043414E315F54785F5761726E49
:10227000696E6743414E315F52785F5761726E6994
:102280006E6743414E315F57616B655F557000006B
:102290000052657365727665643539000000000090
:1022A0005265736572766564363000000000005533
:1022B000415254305F52585F54580000000055415D
:1022C0005254305F45525200000000000055415208
:1022D00054315F52585F5458000000005541525429
:1022E000315F455252000000000000554152543207
:1022F0005F52585F54580000000055415254325FFD
:1023000045525200000000000055415254335F52C4
:10231000585F54580000000055415254335F4552F5
:102320005200000000000055415254345F52585F83
:1023300054580000000055415254345F4552520039
:10234000000000000055415254355F52585F545808
:102350000000000055415254355F455252000000C4
:102360000000004144433000000000000000000075
:102370000000414443310000000000000000000064
:1023800000434D503000000000000000000000003D
:10239000434D5031000000000000000000000043E9
:1023A0004D503200000000000000000000004654C4
:1023B0004D30000000000000000000000046544DB9
:1023C00031000000000000000000000046544D32C3
:1023D0000000000000000000000000434D54000019
:1023E0000000000000000000000052544300000004
:1023F0000000000000000000005265736572766501
:1024000064383300000000005049543000000000E0
:10241000000000000000005049543100000000009E
:10242000000000000000504954320000000000008D
:10243000000000000050495433000000000000007C
:102440000000000050444230000000000000000086
:102450000000005553423000000000000000000062
:1024600000005553424443440000000000000000B7
:1024700000454E45545F313538385F54696D65729B
:10248000454E45545F5472616E736D69740000452A
:102490004E45545F52656365697665000000454EA0
:1024A00045545F4572726F7200000000004932535C
:1024B00030000000000000000000000053444843CA
:1024C0000000000000000000000000444143300014
:1024D0000000000000000000000044414331000003
:1024E00000000000000000000054534930000000CC
:1024F00000000000000000004D4347000000000005
:10250000000000000000004C5054696D657200002E
:10251000000000000000526573657276656431301A
:102520003200000000504F525441000000000000F3
:1025300000000000504F5254420000000000000014
:10254000000000504F525443000000000000000003
:102550000000504F525444000000000000000000F2
:1025600000504F52544500000000000000000000E1
:102570005265736572766564313038000000005230
:10258000657365727665643130390000000052650C
:1025900073657276656431313000000000526573F6
:1025A00065727665643131310000000052657365F3
:1025B00072766564313132000000005265736572D5
:1025C00076656431313300000000526573657276C0
:1025D00065643131340000000052657365727665C0
:1025E00064313135000000005265736572766564B0
:1025F00031313600000000526573657276656431D2
:1026000031370000000052657365727665643131C0
:1026100038000000005265736572766564313139A7
:1026200000000000008003400090034000800B4049
:1026300000F00F4040F00F4080F00F40C0F00F401E
:1026400000F10F40F0000A1D3000180032001801A0
:10265000600018186400181A6E00181F780013180C
:102660007D00131A8200131C8C000E1296000E15AA
:10267000A0000E18AA000E1BB4000E1EC8000C1CF1
:10268000E1000B1EFA000A1F000109080090044037
:1026900000A0044000B0044000C0044000D004404A
:1026A00000A0064000B0064000C0064000D0064032
:1026B00000A00E4000B00E4034353648494A0B4F5A
:1026C00011406F9A3010210085838A0084828C002B
:1026D000020401010C13FF1F5C13FF1F0C13FF1FEB
:1026E0000C13FF1F000000000C13FF1F0000000070
:1026F000140CFF1F000CFF1F000000000000000072
:1027000000000000000000000000000000000000C9
:102710000000000000000000D44E0000D44E000075
:10272000D44E0000D44E0000D44E0000D44E000021
:10273000D44E0000FFFFFFFFFFFFFFFFD64E00005B
:10274000D44E0000D44E0000FFFFFFFFFFFF00004B
:10275000D84E000001000000180CFF1F0000000010
:102760000000000000000000000000000000000069
:102770000000000000000000000000000000000059
:102780000000000000000000000000004F130000E7
:10279000010000000000000038B504000D0064B224
:1027A000002C03D0022C66D049D380E0DFF800056E
:1027B000006850F08070DFF8F81408606DB2002DEA
:1027C0000BD0022D15D00ED3042D1ED017D3062DFD
:1027D00027D020D3072D2AD02FE04FF4806141204D
:1027E00000F076FA2AE04FF48061422000F070FA9F
:1027F00024E04FF48061432000F06AFA1EE04FF4B9
:102800008061442000F064FA18E04FF44071072022
:1028100000F05EFA12E04FF48061652000F058FA93
:102820000CE04FF48061662000F052FA06E04FF4AD
:102830008061672000F04CFA00E038E037E0DFF814
:102840007004006850F00070DFF8641408606DB226
:10285000002D02D0012D06D00BE04FF440710C206A
:1028600000F036FA06E04FF440710D2000F030FA27
:1028700000E01CE01BE0DFF83C04006850F08070D2
:10288000DFF8301408606DB2002D02D0012D06D0A3
:102890000BE04FF44071322000F01AFA06E04FF4DA
:1028A0004071332000F014FA00E000E0FFE731BD92
:1028B0002DE9F84F04000D0016001F0064B2002C33
:1028C0000ED064B2012C02D064B2022C02D16DB2DF
:1028D000022D05DB40F28511DFF8DC0300F06BFA16
:1028E000290049B2200040B2FFF756FFDFF8CC03C1
:1028F00001684FF47A70414388464046000CB0FBB3
:10290000F6F08146002082461FFA89F9484650FABF
:102910000AF0012802DB1AF1010AF5E75FFA8AFAE8
:10292000BAF1080F05DB4FF4D071DFF88C0300F02B
:1029300042FA404630FA0AF0B0FBF6F081461FFA40
:1029400089F9DFF87C0364B240F8249064B2002C6B
:1029500003D0022C17D00BD320E01FFA89F919F10C
:10296000010000FB07F06421B0FBF1F0834615E0A5
:102970001FFA89F919F1010000FB07F06421B0FB8F
:10298000F1F083460AE01FFA89F919F1010000FB12
:1029900007F06421B0FBF1F08346FFE7DFF8240382
:1029A00064B250F824006DB200EBC500DFF81413D8
:1029B00064B251F824106DB201EBC501C96831F061
:1029C0000401C160DFF8FC0264B250F824006DB26B
:1029D00000EBC5002821C1605FFA8AFA1AF00700EF
:1029E00050F00800DFF8DC1264B251F824100860DF
:1029F0001FFA89F9DFF8CC0264B250F82400C0F85D
:102A000008900020DFF8BC1264B251F82410C864AA
:102A1000DFF8B00264B250F824006DB200EBC500DC
:102A20001FFA8BFBC0F810B00020DFF8981264B2D8
:102A300051F824104860BDE8F18F2DE9F8430400F7
:102A40000D0016005FF0000864B2002C0ED064B2D6
:102A5000012C02D064B2022C02D16DB2022D05DB32
:102A60004FF4F371DFF8500200F0A5F964B2002CC6
:102A700003D0022C1BD00DD326E03000DFF8481223
:102A800000F02EFA05D34FF4F671DFF82C0200F0B7
:102A900092F919E03000DFF8301200F021FA05D386
:102AA0004FF4F871DFF8100200F085F90CE0300007
:102AB000DFF8141200F014FA05D34FF4FA71DFF8BE
:102AC000F80100F078F9FFE7DFF8F40164B250F89C
:102AD0002400804664B2002C03D0022C1DD00ED3FB
:102AE00029E018F1010000F00DFA0100300000F0BB
:102AF00017FADFF8D81100F07FFA07001BE018F191
:102B0000010000F0FFF90100300000F009FADFF8E1
:102B1000BC1100F071FA07000DE018F1010000F09F
:102B2000F1F90100300000F0FBF9DFF8A01100F02E
:102B300063FA0700FFE7DFF88C0164B250F8240065
:102B40006DB200EBC509380000F0D4FAC9F81000E6
:102B5000BDE8F18310B5040064B2012C07D064B263
:102B6000022C04D040F2DB21534800F024F964B277
:102B70002000012802D0022811D021E04C48006832
:102B800050F000704A4908604FF4E0610C2000F0FA
:102B90009FF84FF4E0610D2000F09AF815E04548E9
:102BA000006850F08070434908604FF4C0610A200B
:102BB00000F08EF84FF4C0610B2000F089F804E0BB
:102BC00040F213313C4800F0F6F83E4864B250F849
:102BD0002400406D50F004003A4964B251F82410CA
:102BE0004865384864B250F82400D0F8800050F0AE
:102BF0000800344964B251F82410C1F88000002064
:102C0000304964B251F82410C8644FF6FF702D4962
:102C100064B251F8241088602A4864B250F8240045
:102C2000D0F8800050F00100264964B251F8241019
:102C3000C1F88000234864B250F82400406D50F081
:102C40000100204964B251F82410486500201D4954
:102C500064B251F82410486010BD38B5040064B265
:102C6000012C07D064B2022C04D04FF44C711248EE
:102C700000F0A1F8134864B250F824004068050041
:102C8000280000B232BD10B5040064B2012C07D098
:102C900064B2022C04D040F23E31074800F08BF8B9
:102CA0000020084964B251F82410486010BD0000AB
:102CB0003C80044030800440FC4C0000F812FF1FB0
:102CC000E412FF1F240BFF1F0100C8420000C8428E
:102CD00010B42C4A13684FF400740200D2B25209A7
:102CE00094402343274A1360274AC0B203005B1174
:102CF00052F82330012410F01F029440C3F8A04082
:102D0000214AC0B203005B1152F82320C0B210F078
:102D10001F0342F8231010BC704710B4194A1368FF
:102D20004FF400740200D2B2520994402343154A72
:102D30001360154AC0B203005B1152F8233001241E
:102D400010F01F029440C3F8A04031F4E0610E4A35
:102D5000C0B203005B1152F82320C0B210F01F0371
:102D600052F8232012F4E0621143074AC0B2030074
:102D70005B1152F82320C0B210F01F0342F8231059
:102D800010BC7047388004408C0BFF1FDFF800F048
:102D9000C90CFF1FDFF800F0F90CFF1FBFF34F8FC6
:102DA0004748016811F4E061464801434448016026
:102DB000BFF34F8FFEE738B504000D00002000F090
:102DC000ABF92A002100404800F0FCF9002000F097
:102DD000DEF94FF47A7000F024FAF2E738B5040017
:102DE0000D00210049B2042000F03CFB200032BD60
:102DF00010B50024002000F061FB002000F094FBDF
:102E0000002841D1002000F087F9002000F08CFB61
:102E1000012801D101200400002000F0B8F92B485E
:102E200000F0D0F94FF4FA7000F0FBF9E4B2012C95
:102E3000EBD1002000F078FB0028E6D1002000F064
:102E400073FB002806D1002000F0A1F9642000F0F7
:102E5000E8F9F3E7002000F067FB012806D1002025
:102E600000F095F9322000F0DCF9F3E7184800F0A3
:102E7000A9F9FFF78BFF642000F0D3F90020FFF7DA
:102E800089FFFFF78BFFC0E710BD10B5114804683C
:102E9000012000F041F9012000F079F90E48E4B278
:102EA0000F2101FB04F100EB0102E4B221000B4809
:102EB00000F088F94FF47A7000F0B3F9EBE7000006
:102EC0000CED00E00400FA05FC4D0000B44E0000DB
:102ED000304E000004ED00E01C04FF1F084C000011
:102EE0004FF0807C1CEB400F94BF1CEB410F05E0C2
:102EF00040EA010C1CEB0C0F01D28842704718BF4E
:102F00008142704700280AD0B0FA80F18840D1F1A0
:102F10009D01C905020672F1004241EB1020704785
:102F2000FF2212EAD05C1DBF12EAD15394459342AE
:102F30002BE09C44D30780EA01021A4043EA0020B8
:102F400043EA0121A1FB0030C04238BF40007CF1C0
:102F50007F010BDBFE294ADA5B0842EAC15153EAE2
:102F6000006373F1004C51EB10207047D1F1080C55
:102F7000DCF120012FDB5B0810FA01F10B4320FA92
:102F80000CF073F100415041704794451CBF02EAB8
:102F9000D153934280EA010202F000421DD040006A
:102FA00019D0490017D05BB9634514D00902B1FAB2
:102FB00081F39940BCEB030CC00140F00040C1E735
:102FC0000002B0FA80FC10FA0CF0B3EB0C0CC90153
:102FD00041F00041B6E71000704740000AD04900B8
:102FE00008D010F1807F94BF11F1807F02E042F0A1
:102FF000FF407047D043704710B5FF2313EAD05409
:103000001DBF13EAD1529C429A4239E0A41ADA0752
:1030100080EA0103134042EA012142EA0020421AF9
:103020003CBF641E01EB4202090AB2FBF1FE01FB48
:103030001E221202B2FBF1F001FB10226EF30F20F0
:103040001202B2FBF1FE4EEA00207F3406DDFE2CB8
:1030500024DA53EA500050EBC45010BDD4F10204FE
:1030600001FB1E2240F08071192C1DDC21FA04F0B6
:10307000C4F12004A140114371F10042584110BD38
:103080009C421ABF03EAD1529A420FE080EA010E35
:103090000EF00043400004D0490016D143F0FF4039
:1030A00010BD490008BFD343180010BD9C4205D194
:1030B000D21AF7D001F00041484010BD4A0212BFB9
:1030C0000846484000F0004010BD4AB90902B1FA74
:1030D00081F2914044B1A418C00140F000409EE745
:1030E000C90141F0004152420002B0FA80F4A04010
:1030F000141B94E700180CD2010E7F3909D4D1F1CA
:103100001F015DBFC00140F00040C8406FF00000EB
:10311000704700207047000010B5040064B2042C12
:1031200007DA01220121264864B2005D00F014FA9A
:103130000EE0042004002000441E40B2002807D006
:10314000012201211E4864B2005D00F005FAF2E799
:1031500010BD38B504000D0064B2042C07DA290054
:10316000C9B2174864B2005D00F055FA0EE00420C1
:1031700004002000441E40B2002807D02900C9B234
:103180000F4864B2005D00F046FAF2E731BD10B5B9
:10319000040064B2042C05DA094864B2005D00F052
:1031A00078FA0CE0042004002000441E40B20028FD
:1031B00005D0034864B2005D00F06BFAF4E710BD7F
:1031C000C00BFF1F0EB4C0B5024603A8002101903A
:1031D000009101AB0121044878440C30FDF71CF943
:1031E00006BC5DF810FB00BF971C000010B5040082
:1031F000002C15D0B4F1807F03D329210F48FFF7AD
:10320000DAFD00200E4908600E48046000200E49D7
:10321000086005200A49086009480068C003FBD51A
:1032200010BD10B504002000441E002804D007483B
:103230000068FFF7DBFFF6E710BD0000444C00001C
:1032400010E000E014E000E018E000E0F012FF1FE2
:103250002DE9F84304000D0064B2002C08D0022CC4
:103260002CD018D3042C4FD03BD3052C5FD071E069
:10327000DFF83002006850F48060DFF82812086040
:103280004FF440716620FFF723FD4FF44071672033
:10329000FFF71EFD5EE0DFF80C02006850F40060EE
:1032A000DFF8001208604FF440714320FFF710FD73
:1032B0004FF440714420FFF70BFD4BE0DFF8E401D1
:1032C000006850F48050DFF8DC1108604FF4407162
:1032D0006320FFF7FDFC4FF440716220FFF7F8FC1C
:1032E00038E0DFF8C001006850F40050DFF8B41196
:1032F00008604FF440715020FFF7EAFC4FF4407132
:103300005120FFF7E5FC25E0DFF89C01006850F450
:103310008060DFF8941108604FF440719920FFF746
:10332000D7FC4FF440719820FFF7D2FC12E0DFF891
:103330007801006850F40060DFF86C1108604FF409
:1033400040718920FFF7C4FC4FF440718820FFF7DB
:10335000BFFCFFE7DFF8540164B250F82400C078E6
:1033600010F0F300DFF8441164B251F82410C87073
:10337000DFF8380164B250F824008078DFF82C11AF
:1033800064B251F82410887064B2002C02D064B288
:10339000012C07D1DFF8180101684FF47A7041431E
:1033A000894606E0DFF80C0101684FF47A7041436A
:1033B00089462801B9FBF0F00600B6B2B6F5005F09
:1033C00002DB41F6FF700600B9FBF5F0B6B2B0EBD8
:1033D00006100700BFB2202F03DBDC213648FFF7C1
:1033E000EAFC324864B250F82400007810F0E000A3
:1033F0008046C6F3042050EA08002C4964B251F814
:1034000024100870294864B250F8240046702748F8
:1034100064B250F82400807A10F0E000804617F083
:103420001F0050EA0800214964B251F82410887244
:103430001E4864B250F82400007C50F088001B49FC
:1034400064B251F824100874184864B250F824008B
:10345000C07850F00C00154964B251F82410C870BF
:10346000BDE8F183114A40B252F8202012791206C9
:10347000F8D50E4A40B252F82020D171704770B58D
:1034800004000D0016003000461E002809D095F9F2
:103490000000010049B2200040B2FFF7E3FF6D1CBD
:1034A000F1E770BD3480044028800440A00BFF1F6A
:1034B000F012FF1FF812FF1F804D000010B504002E
:1034C00064B2082C0DDA00220021224864B2005DAB
:1034D00000F042F803211F4864B2005DFFF71DFCB5
:1034E00014E0082004002000441E40B200280DD043
:1034F00000220021174864B2005D00F02DF803217E
:10350000144864B2005DFFF708FCECE710BD10B58D
:103510000400104864B2005D00F0D9F8002801D121
:10352000002000E0012010BD10B50400200040B2D2
:10353000FFF7EDFF00280AD10A20FFF772FE2000F6
:1035400040B2FFF7E4FF002801D1002000E0012095
:1035500010BD0000B80BFF1F70B506000C00150071
:103560004FF480713000C0B2FFF7B2FB64B2002CA0
:1035700013D16748F6B23100491150F82110644860
:10358000F6B23200521150F822004269012316F0BF
:103590001F0083409A434A613CE05D48F6B2310027
:1035A000491150F821105A48F6B23200521150F821
:1035B00022004269012316F01F0083401A434A612A
:1035C000EDB2002D13D15248F6B23100491150F836
:1035D00021000168012216F01F00824091434C48EF
:1035E000F6B23200521150F82200016012E0484851
:1035F000F6B23100491150F821000168012216F09D
:103600001F00824011434248F6B23200521150F876
:103610002200016070BD38B505000C003C48EDB2D9
:103620002900491150F82100406915F01F01C840D8
:10363000C00703D463213748FFF7BDFBE4B2002C79
:1036400013D13348EDB22900491150F82100016827
:10365000012215F01F00824091432D48EDB22A004F
:10366000521150F82200016012E02948EDB2290001
:10367000491150F821000168012215F01F00824015
:1036800011432348EDB22A00521150F82200016084
:1036900031BD10B504001E48E4B22100491150F8B4
:1036A0002100406914F01F01C840C00703D47B21EA
:1036B0001848FFF780FB1648E4B22100491150F882
:1036C0002110012214F01F008240CA6010BD10B505
:1036D00004000F48E4B22100491150F8210040696C
:1036E00014F01F01C840C00703D58C210948FFF71B
:1036F00062FB0748E4B22100491150F8210000693B
:1037000014F01F04E04010F0010010BD00000000A4
:10371000300BFF1F284D0000DFF800F0110EFF1FD7
:10372000DFF8B81340B231F8201040B20128C0F2DF
:103730007B8140B2112880F277810022DFF8A0332C
:103740001A7089B2312904DA0022DFF894335A70F2
:1037500084E089B2612904DA0122DFF884335A70E7
:103760007CE089B2912904DA0222DFF874335A70BE
:1037700074E089B2C12904DA0322DFF864335A7095
:103780006CE089B2F12904DA0422DFF854335A706C
:1037900064E089B240F22112914204DA0522DFF896
:1037A00040335A705AE089B240F25112914204DA21
:1037B0000622DFF82C335A7050E089B240F28112B1
:1037C000914204DA0722DFF818335A7046E089B2D2
:1037D00040F2B112914204DA0822DFF804335A7041
:1037E0003CE089B240F2E112914204DA0922DFF8AA
:1037F000F0325A7032E089B240F21122914204DA7A
:103800000A22DFF8DC325A7028E089B240F2412205
:10381000914204DA0B22DFF8C8325A701EE089B2F6
:1038200040F27122914204DA0C22DFF8B4325A706D
:1038300014E089B240F2A122914203DA0D22A84B92
:103840005A700BE089B240F2D122914203DA0E2283
:10385000A34B5A7002E00F22A14B5A7089B21A2969
:1038600003DA00229E4B9A706BE089B2332903DAA7
:1038700001229B4B9A7064E089B24C2903DA022240
:10388000974B9A705DE089B2652903DA0322944B65
:103890009A7056E089B27E2903DA0422904B9A701E
:1038A0004FE089B2972903DA05228D4B9A7048E0E0
:1038B00089B2B02903DA0622894B9A7041E089B2B5
:1038C000C92903DA0722864B9A703AE089B2E229C5
:1038D00003DA0822824B9A7033E089B2FB2903DABB
:1038E00009227F4B9A702CE089B2B1F58A7F03DA06
:1038F0000A227B4B9A7024E089B240F22D12914249
:1039000003DA0B22764B9A701BE089B2B1F5A37FE4
:1039100003DA0C22724B9A7013E089B240F25F1204
:10392000914203DA0D226E4B9A700AE089B2B1F52A
:10393000BC7F03DA0E226A4B9A7002E00F22684BBA
:103940009A7089B21A2903DA0022654BDA706BE0AB
:1039500089B2332903DA0122614BDA7064E089B25B
:103960004C2903DA02225E4BDA705DE089B26529E8
:1039700003DA03225A4BDA7056E089B27E2903DA61
:103980000422574BDA704FE089B2972903DA0522F7
:10399000534BDA7048E089B2B02903DA0622504B63
:1039A000DA7041E089B2C92903DA07224C4BDA7098
:1039B0003AE089B2E22903DA0822494BDA7033E0AF
:1039C00089B2FB2903DA0922454BDA702CE089B26F
:1039D000B1F58A7F03DA0A22414BDA7024E089B21A
:1039E00040F22D12914203DA0B223D4BDA701BE0BC
:1039F00089B2B1F5A37F03DA0C22394BDA7013E0F8
:103A000089B240F25F12914203DA0D22344BDA7030
:103A10000AE089B2B1F5BC7F03DA0E22304BDA70CE
:103A200002E00F222E4BDA70704710B50400200020
:103A300040B2FFF775FE2B48007810F0FD002949D1
:103A400008702848007850F0100026490870B82007
:103A50002549087025480078C006FBD42348007823
:103A6000C0B2C0F381000228F8D11D48C3781C48B9
:103A700082781B4841781A480078FFF74DFE1748B6
:103A800064B200EB8400807810F01F0018490870C1
:103A9000124864B200EB8400C07810F01F0050F0B0
:103AA000400014490870114800788006FBD50F4883
:103AB00000784006FBD50C48007810F03F000A491A
:103AC00008700A480078C0B2C0F381000328F8D11A
:103AD000024864B230F82400C0B210BD440BFF1F8E
:103AE000880BFF1F0140064000400640064006408C
:103AF0000440064005400640012210F01F018A40A4
:103B0000C84940B203005B0941F82320704770B5F3
:103B10000024002600250020FFF7FEFA0120FFF711
:103B2000FBFA0220FFF7F8FA0320FFF7F5FA00206E
:103B3000FFF7C4FC0120FFF7C1FC0220FFF7BEFC29
:103B400000F08AF80120FFF705F800213000C0B22C
:103B500000F086F9B448006800F0A6F900210020C2
:103B6000FFF7F7FAC820FFF75CFB00210120FFF701
:103B7000F0FAC820FFF755FB00210220FFF7E9FA11
:103B8000C820FFF74EFB00210320FFF7E2FAC82010
:103B9000FFF747FB01210020FFF7DBFA012101209D
:103BA000FFF7D7FA01210220FFF7D3FA0121032002
:103BB000FFF7CFFA9D48016832204143012000F011
:103BC00089F90FF27501552000F0D3F94520FFF770
:103BD00093FF0120FFF7A8FC002801D1761CFFE726
:103BE00000F04FF805003C2095FBF0F0401D00F080
:103BF000D7F98D4908608E480068FA2801DAB61CAA
:103C000000E0B61E142E01DB14200600002E01D5A4
:103C100000200600310082A0FFF7D4FA0021300016
:103C2000C0B200F01DF98048006800F03DF90020A6
:103C3000FFF7ADFACDE7000080B50120FFF70DF8E2
:103C40007B4908600120FFF71EF87A48006850F0B1
:103C500001007849086001BD10B53C24764B774AD5
:103C60007749032000F006FAE4B2200000F0DAF908
:103C70000FF29D01542000F07CF94420FFF73CFF37
:103C800010BD10B5C2B0002400F01FFAC822802178
:103C90006B4800F047F8C8228021684800F042F8DD
:103CA0008021674800F059FB8021644800F055FBF3
:103CB00001A8009021AB80226149624800F05DF8C4
:103CC0000DF1050000900DF1850380225B495E48EF
:103CD00000F053F80DF1060000900DF186038022EC
:103CE00055495A4800F049F88021554800F02BF812
:103CF0008021524800F027F8514800F00BFB0400E7
:103D00004FF480714E4800F07DFB200042B010BDA2
:103D100080B500F0E3F94E48006850F001004C49CE
:103D2000086001BD10B40B00591E9BB2002B08D0D7
:103D3000130089B2445CDBB2A342F4D289B242548C
:103D4000F1E710BC704710B4424A1378D3F1C803AE
:103D50000A00511E92B2002A0DD089B2425C1C00AA
:103D6000E4B2A24203D3FF2289B24254F0E7002218
:103D700089B24254ECE710BC70472DE9F84F0500BA
:103D80000E001700DDF828805FF0000B3C00641E79
:103D9000A4B2002C2ED096F9011096F90000091A51
:103DA0008A464FFA8AFABAF1010F01DBD14603E0E5
:103DB0004FFA8AFADAF1000926480078494649B2F2
:103DC00000B209B288420EDA224880F800904FFA19
:103DD0008AFABAF1000F03D470781F49087002E024
:103DE00030781D4908704BFA89FB85F80090761CE5
:103DF0006D1CCCE7002028701648007800990870E8
:103E0000BFB2781EBBFBF0F088F8000011480278C2
:103E1000114801781148FFF7D5F9BDE8F18F00008E
:103E200025640A0000E100E01004FF1FF812FF1FE4
:103E3000E012FF1F1C710340600FFF1FE00EFF1F09
:103E4000600EFF1FE00FFF1F6010FF1FE010FF1F3D
:103E50000C7103406013FF1F6113FF1FA04E000091
:103E600038B504000D0064234FF47A72002100205D
:103E7000FEF71EFD64234FF47A7201210020FEF745
:103E800017FDE4B22000FFF73DF8020000210020FA
:103E9000FEF7D3FDEDB22800FFF734F80200012150
:103EA0000020FEF7CAFD31BD38B50400642364224A
:103EB00001210220FEF7FCFC0549200000F0C2FAB7
:103EC00005002A0001210220FEF7B7FD31BD00BF29
:103ED0000000104138B505000C00002C03D1222150
:103EE0001748FEF768FF1748006850F400001549AE
:103EF0000860002014490860601E14496DB22A0150
:103F0000885012486DB229010844C06850F0010081
:103F10000E496DB22A011144C8600C486DB22901E6
:103F2000084480684008400008496DB22A011144E5
:103F30008860032005496DB22A011144886031BDB3
:103F4000544D00003C800440007003400071034069
:103F500010B504004FF4007094FBF0F100FB114029
:103F6000002803D01E210B48FEF725FF0A480460F5
:103F700010BD38B504000D000748006807498842A5
:103F800003D030210348FEF716FF044864B240F81E
:103F9000245031BDAC4D000008ED00E00000FF1FD3
:103FA000C2175040801AB0FA80F10AD08840D1F18F
:103FB0009D01D20742EAC151020672F1004241EB73
:103FC0001020704738B504000325E4B2022C03DB4F
:103FD00037216E48FEF7EFFE2800451EC0B20028CC
:103FE00007D02100C9B26A48EDB2405DFFF713FB6C
:103FF000F2E731BD38B504000325E4B2022C03DB3F
:1040000044216248FEF7D7FE2800451EC0B20028B2
:1040100007D02100C9B25F48EDB2405DFFF7FBFA5F
:10402000F2E731BD38B505000324E4B2002C14D00A
:10403000641E5948E4B2005700F076FA00220121CC
:104040005448E4B2005DFFF787FA0022012150488E
:10405000E4B2005DFFF780FAE7E7504805604F489B
:1040600001684F48006841430020FFF733FF00F02C
:104070009DF831BD0CB438B504000D0064B2042CB9
:1040800003DB65214148FEF796FE002364B2032C52
:1040900004DA444864B240F8245013E064B2032CBC
:1040A00010D104A801002A002000441E40B20028BC
:1040B00008D03C48DBB240F823205B1C0868091D8F
:1040C0000200F1E731BC5DF80CFB012036490870B5
:1040D000354890F900000228FAD1704780B532487F
:1040E00090F90000012805D100F010F802202E49B7
:1040F000087001E000F05AF801BD81B0009000990D
:104100004A1E00920029FAD101B0704770B580258F
:1041100000240020FFF76EFF0A20FFF7EEFF0120CA
:10412000FFF750FF0A20FFF7E8FF0120FFF762FFCB
:104130000A20FFF7E2FF0020FFF744FF0A20FFF705
:10414000DCFF2800451EC0B200281ED00020FFF76B
:1041500051FF032006003000461EC0B200280CD0DC
:1041600000210D48F6B2805700F0E6FA0D49F6B28C
:1041700051F82610E4B20855EDE70120FFF73AFFA9
:104180000A20FFF7BAFF641CDBE770BD744C000027
:10419000C80BFF1FCC0BFF1FC40BFF1FFC12FF1F20
:1041A000F812FF1F0013FF1F6213FF1F10B58024BA
:1041B0000020FFF71FFF0120FFF79FFF0120FFF7FF
:1041C00001FF0120FFF799FF0120FFF713FF0120F6
:1041D000FFF793FF0020FFF7F5FE0120FFF78DFFAB
:1041E0002000441EC0B200280CD00020FFF702FFC0
:1041F0000120FFF782FF0120FFF7FCFE0120FFF7FF
:104200007CFFEDE710BDF0B4020000230024002184
:10421000002500207E2B11DA02EB030696F8806061
:1042200002EB030797F88170BE4205D2002902D144
:104230001C00012631001D005B1CEBE7D5F1800559
:104240002E1B3000F0BC7047F0B4020000230021A8
:104250000024002500207E2B11DA02EB030696F8DD
:10426000806002EB030797F88170BE4205D20029F7
:1042700002D11C00012631001D005B1CEBE72E1B48
:104280003000F0BC704770B504000D00002620001F
:10429000FFF7DAFF0600681FB04204DA681D8642A5
:1042A00001DA012000E0002070BD30B401000022DE
:1042B000002300207E2B0CDA01EB030494F88040ED
:1042C00001EB030595F88150AC4200D2521C5B1CF7
:1042D000F0E7022A02D10124200001E0002420009E
:1042E00030BC704730B401000022002300207E2A39
:1042F0000BDA01EB020494F8804001EB020595F81B
:104300008150AC42F3D01300F1E7D3F13F04200019
:1043100030BC704738B5040069252000FFF7C5FFA1
:10432000012816D129002000FFF7ADFF00280CD18D
:104330002000FFF7BAFF012803D12000FFF763FF39
:104340000AE02000FFF7CEFF06E02000FFF75BFF4A
:1043500002E02000FFF757FF32BD2DE9F043A1B086
:1043600005000C00002600275FF000085FF0000940
:104370006846802100F036FA00208146A4B2A145AB
:104380003ADAA4B27F2C0DD1A4B2285DA4B2295D83
:104390000818A4B205EB040111F8011C50FA81F0D1
:1043A00006001FE0A4B2002C0CD1A4B2285DA4B278
:1043B000295D0818A4B205EB0401497850FA81F090
:1043C00006000FE0A4B205EB040010F8010CA4B243
:1043D000295D51FA80F0A4B205EB0401497850FA46
:1043E00081F00600032096FBF0F00700684600F815
:1043F000097019F10109C1E76846050021B0BDE85F
:10440000F083000038B504000D000C480088ADF8BA
:1044100002000B480088ADF8000002220DF10201F5
:104420000420FFF72CF82A0021000420FFF727F8CA
:10443000022269460420FFF722F831BD76130000FE
:10444000F213000090EA010F40F1D08181F00041A9
:10445000431A4FF000423EBF5340C01AC91800BF74
:10446000D3095FEAD05C13EB400F34BFB3EB410FCD
:1044700040E07CEBD1530CD342EA012122D8D1EBAE
:10448000402009D3400A28BF5FEA500140EBCC50DE
:104490007047401A15D04002B0FA80F2521C90408A
:1044A000400A4FEA3C23B3EB026384BF00EB730086
:1044B00007E040F400001A16DB07C2F10102D04009
:1044C00018437047182BFCDC31FA03F202FA03F3AD
:1044D000591A38BF42F00102D2EB40203CBF4000E5
:1044E000ACF1010C5FEACC5CC20572F100414CEB0F
:1044F0005020704713EB400F0FD2C94209D0ACEBEC
:10450000D153022B03DB4902172BDDDD70479143AA
:10451000401AC042D5D10020704713EB410FD0D3D1
:104520006FF000007047000038B5040064B2250049
:104530006D11EDB2002D02D0012D11D021E0A44863
:10454000006850F00060A2490860A248006830F09E
:104550009000A04908609F4800689E49086014E0E8
:104560009D48006850F000609B49086099480068C9
:1045700030F41040974908609648006895490860F3
:1045800003E033219548FEF716FC64B220000028B2
:1045900000F08980012800F08680032800F08380E5
:1045A00008284ED0092851D00A2854D00B2857D0BB
:1045B0000C285AD00D285DD00E2860D00F2863D06B
:1045C000102870D0112864D0122867D013286AD020
:1045D000142868D01A2866D01D2864D01E2862D0FE
:1045E000202861D021285FD023285DD024285CD0EA
:1045F00025285FD0262862D0272865D0282868D0B3
:1046000029286BD02A286ED02B2871D02C2874D062
:104610002D2877D02E287AD02F287DD0302800F072
:10462000858031287DD0322800F0808033287DD0ED
:1046300034287BD03A2879D03D2877D03E2875D0D1
:1046400075E000212020FEF743FB74E000212120CB
:10465000FEF73EFB6FE000210720FEF739FB6AE022
:1046600000210820FEF734FB65E000212220FEF740
:104670002FFB60E000212320FEF72AFB5BE00021F6
:104680004020FEF725FB56E000214120FEF720FBED
:1046900051E000219820FEF71BFB4CE000219920FF
:1046A000FEF716FB47E046E045E000218020FEF7DC
:1046B0000FFB40E000218120FEF70AFB3BE00021D8
:1046C0008220FEF705FB36E000218320FEF700FB89
:1046D00031E000212020FEF7FBFA2CE00021212010
:1046E000FEF7F6FA27E000212420FEF7F1FA22E097
:1046F00000212520FEF7ECFA1DE000212620FEF720
:10470000E7FA18E000212720FEF7E2FA13E0002183
:104710002A20FEF7DDFA0EE000212B20FEF7D8FA62
:1047200009E000211120FEF7D3FA04E003E09A210A
:104730002A48FEF740FB31BDF8B504000D0064B215
:10474000260076110027290049B2200040B200F06F
:104750001CF8234876B250F8260000680006F8D509
:104760001F4876B250F82600006907001C4876B250
:1047700050F82600006830F08000194976B251F8F0
:1047800026100860380080B2F2BD30B440B202009A
:10479000521110F01F0349B28C0014F00C0454F0B5
:1047A00050040F4D52B255F82250AC6004240C4D09
:1047B00052B255F82250EC60DBB213F01F0454F0F3
:1047C0004004074D52B255F822502C6030BC70475F
:1047D0003C8004401880044030800440A44C000019
:1047E0001404FF1F002200F03BB80000421A3CBF37
:1047F000801A89184FF0004CC0F3C752FF2A24D00A
:10480000C1F3C75313B3D21AD2F1190327DD4CEA0F
:1048100001214CFA03F321EA0303D140C20D4CEA13
:104820000020401834BF20EA0C004CEA5000D205AA
:1048300053EA006373EB0C0C52EB1020420012F1B0
:10484000807F38BF7047C00DC0057047490212BF56
:104850009A4200EB5120F8E7D2F11703D9D57047FF
:1048600000B500BF130096469446103928BFA0E853
:104870000C50FAD85FEA417C28BF0CC048BF40F812
:10488000042BC90728BF20F8022B48BF00F8012BD2
:1048900000BD0000DFF800F023320000DFF800F078
:1048A000B72D0000F0204D4908704C4800780006F4
:1048B000FBD54A48007810F0710F01D0002000E0CD
:1048C0000120704780B54648006850F400204449F4
:1048D00008604448006850F40020424908603F489E
:1048E00000780006FBD5F0203C4908700A20FFF74D
:1048F000D1FF01BD10B582B00400A4B24FF4006036
:1049000000FB04F000900920374908709DF8020070
:10491000364908709DF80100354908709DF800007F
:1049200034490870FFF7BEFF002801D100200CE0D9
:10493000A4B2002C08D17FF0010240F20C4120000B
:1049400080B200F003F800E0012016BD7CB5040041
:104950000D001600A4B24FF40060ADB200FB04508D
:104960000190ADB2042095FBF0F100FB115000283E
:1049700003D0EA212048FFF791FFADB240F60100D5
:10498000854203DBEC211C48FFF788FF9DF80600F9
:10499000164908709DF80500154908709DF8040037
:1049A0001449087000969DF80300144908709DF89A
:1049B0000200134908709DF80100124908709DF823
:1049C000000011490870062007490870FFF76AFFC8
:1049D000002801D1002000E0012076BD0000024047
:1049E00004F0014008F001400700024006000240C8
:1049F0000500024004000240D04C00000B000240C1
:104A00000A0002400900024008000240F0B4114EC2
:104A1000366834000F4E366856F47F060D4F3E6000
:104A20000E0616F0706656EA0076170517F4700742
:104A30003E431F0417F470273E43074F3E60002695
:104A40003500EDB29D4201D26D1CFAE7014E346093
:104A5000F0BC704700F001404480044080B500F095
:104A600093F800F02AF800F00AF8FEF7C1F90122E5
:104A700001210420FEF770FDFFF749F8FEE780B53D
:104A80000320FEF7D2FF32490860314801684FF435
:104A90007A7041432F4801602E4800682E4909680A
:104AA000C1F30361491CB0FBF1F02C4908605FF4CD
:104AB000E1310420FEF7CCFB01BD2DE9F843284885
:104AC000284988420DD000208146B9F5826F08D26E
:104AD000244850F82900224941F8290019F1010918
:104AE000F3E71F48FFF734FA1F4804001F4805008A
:104AF0001F480600701B81464846B0F10109002896
:104B000004D0287820706D1C641CF5E71948070054
:104B100019488046B8EB070081464846B0F10109C4
:104B2000002803D0002038707F1CF6E71349144A90
:104B3000144B981A81464846B0F10109002804D068
:104B400010780870521C491CF5E7BDE8F18300009D
:104B5000F412FF1FF012FF1F44800440F812FF1FE1
:104B60000000FF1F000000001004FF1F101F0000C6
:104B700098270000600EFF1F6413FF1F980CFF1F93
:104B8000944800005C4A000080B500F008F80C482A
:104B900001884FF6FE7001400948018001BDEFF326
:104BA000118072B64CF22051064A11804DF6281140
:104BB000044A1180C0B2002800D162B670470000DC
:104BC000002005400E20054019E050F8042BD307C3
:104BD00044BFA9F101039A18091F0023042942F8D0
:104BE000043BF9D25FEA817C134604D54FF0000CF8
:104BF000A2F800C09B1CC90744BF0021197050F8DF
:104C0000041B0029E1D170470A2A2A2A2A64656612
:104C100061756C745F69737220656E74657265642A
:104C2000206F6E20766563746F722025642A2A2AAD
:104C30002A2A0A0A257320496E7465727275707487
:104C400000000000453A5C30354E58505C467265B5
:104C5000655363616C655F585C436869705C73722F
:104C6000635C4D4B36305F5379735469636B2E63CD
:104C700000000000453A5C30354E58505C46726585
:104C8000655363616C655F585C426F6172645C730D
:104C900072635C5643414E5F54534C313430312E75
:104CA00063000000453A5C30354E58505C467265F2
:104CB000655363616C655F585C436869705C7372CF
:104CC000635C4D4B36305F6164632E63000000000F
:104CD000453A5C30354E58505C46726565536361A9
:104CE0006C655F585C436869705C7372635C4D4BC4
:104CF00036305F666C6173682E630000453A5C3045
:104D0000354E58505C467265655363616C655F58FB
:104D10005C436869705C7372635C4D4B36305F66F0
:104D2000746D2E6300000000453A5C30354E5850DB
:104D30005C467265655363616C655F585C43686986
:104D4000705C7372635C4D4B36305F6770696F2EB9
:104D500063000000453A5C30354E58505C46726541
:104D6000655363616C655F585C436869705C73721E
:104D7000635C4D4B36305F5049542E630000000099
:104D8000453A5C30354E58505C46726565536361F8
:104D90006C655F585C436869705C7372635C4D4B13
:104DA00036305F756172742E63000000453A5C30E6
:104DB000354E58505C467265655363616C655F584B
:104DC0005C436869705C7372635C6D6973632E63C6
:104DD0000000000010B5074979441831064C7C44A6
:104DE000163404E00A68081D114488470146A142B0
:104DF000F8D110BD2C00000038000000417373652D
:104E00007274696F6E206661696C656420696E20DA
:104E10002573206174206C696E652025640A00008A
:104E2000A9FDFFFF04050000600EFF1F0000000049
:104E30000ABDF8D0D0BDE2CBF8B2D9D7F7A3ACC742
:104E4000EBD6D8D0C2CBA2C8EBB9CCBCFE000000D8
:104E500000F00BF8002801D0FFF7BCFF0020AFF3F3
:104E60000080FEF754FE00F002F80120704700F0C9
:104E700001B8000007463846FDF740F8FBE738B5B3
:104E800004460D46284600F005F8A84218BF002445
:104E9000204632BD0149FDF7A1BF00BFD00BFF1F67
:104EA0006D6178256420202020206D61785F642565
:104EB000640A00000ABDF8C8EBCBC0D1ADBBB7B5E2
:104EC000C8B4FDA3A1000000AFF30080AFF30080E1
:0A4ED000FFF7BEFF00002E004300B4
:0400000500004EC9E0
:00000001FF
